{
  "abi": [
    {
      "inputs": [],
      "stateMutability": "nonpayable",
      "type": "constructor"
    },
    {
      "inputs": [],
      "name": "BuyTickets",
      "outputs": [],
      "stateMutability": "payable",
      "type": "function"
    },
    {
      "inputs": [],
      "name": "CurrentWinningReward",
      "outputs": [
        {
          "internalType": "uint256",
          "name": "",
          "type": "uint256"
        }
      ],
      "stateMutability": "view",
      "type": "function"
    },
    {
      "inputs": [],
      "name": "DrawWinnerTicket",
      "outputs": [],
      "stateMutability": "nonpayable",
      "type": "function"
    },
    {
      "inputs": [],
      "name": "IsWinner",
      "outputs": [
        {
          "internalType": "bool",
          "name": "",
          "type": "bool"
        }
      ],
      "stateMutability": "view",
      "type": "function"
    },
    {
      "inputs": [],
      "name": "RefundAll",
      "outputs": [],
      "stateMutability": "nonpayable",
      "type": "function"
    },
    {
      "inputs": [],
      "name": "RemainingTickets",
      "outputs": [
        {
          "internalType": "uint256",
          "name": "",
          "type": "uint256"
        }
      ],
      "stateMutability": "view",
      "type": "function"
    },
    {
      "inputs": [],
      "name": "WithdrawCommission",
      "outputs": [],
      "stateMutability": "nonpayable",
      "type": "function"
    },
    {
      "inputs": [],
      "name": "WithdrawWinnings",
      "outputs": [],
      "stateMutability": "nonpayable",
      "type": "function"
    },
    {
      "inputs": [],
      "name": "checkWinningsAmount",
      "outputs": [
        {
          "internalType": "uint256",
          "name": "",
          "type": "uint256"
        }
      ],
      "stateMutability": "view",
      "type": "function"
    },
    {
      "inputs": [],
      "name": "duration",
      "outputs": [
        {
          "internalType": "uint256",
          "name": "",
          "type": "uint256"
        }
      ],
      "stateMutability": "view",
      "type": "function"
    },
    {
      "inputs": [],
      "name": "expiration",
      "outputs": [
        {
          "internalType": "uint256",
          "name": "",
          "type": "uint256"
        }
      ],
      "stateMutability": "view",
      "type": "function"
    },
    {
      "inputs": [],
      "name": "getSenderTickets",
      "outputs": [
        {
          "internalType": "uint256",
          "name": "",
          "type": "uint256"
        }
      ],
      "stateMutability": "view",
      "type": "function"
    },
    {
      "inputs": [],
      "name": "getTickets",
      "outputs": [
        {
          "internalType": "address[]",
          "name": "",
          "type": "address[]"
        }
      ],
      "stateMutability": "view",
      "type": "function"
    },
    {
      "inputs": [
        {
          "internalType": "address",
          "name": "addr",
          "type": "address"
        }
      ],
      "name": "getWinningsForAddress",
      "outputs": [
        {
          "internalType": "uint256",
          "name": "",
          "type": "uint256"
        }
      ],
      "stateMutability": "view",
      "type": "function"
    },
    {
      "inputs": [],
      "name": "lastWinner",
      "outputs": [
        {
          "internalType": "address",
          "name": "",
          "type": "address"
        }
      ],
      "stateMutability": "view",
      "type": "function"
    },
    {
      "inputs": [],
      "name": "lastWinnerAmount",
      "outputs": [
        {
          "internalType": "uint256",
          "name": "",
          "type": "uint256"
        }
      ],
      "stateMutability": "view",
      "type": "function"
    },
    {
      "inputs": [],
      "name": "lotteryOperator",
      "outputs": [
        {
          "internalType": "address",
          "name": "",
          "type": "address"
        }
      ],
      "stateMutability": "view",
      "type": "function"
    },
    {
      "inputs": [],
      "name": "maxTickets",
      "outputs": [
        {
          "internalType": "uint256",
          "name": "",
          "type": "uint256"
        }
      ],
      "stateMutability": "view",
      "type": "function"
    },
    {
      "inputs": [],
      "name": "operatorTotalCommission",
      "outputs": [
        {
          "internalType": "uint256",
          "name": "",
          "type": "uint256"
        }
      ],
      "stateMutability": "view",
      "type": "function"
    },
    {
      "inputs": [],
      "name": "restartDraw",
      "outputs": [],
      "stateMutability": "nonpayable",
      "type": "function"
    },
    {
      "inputs": [],
      "name": "ticketCommission",
      "outputs": [
        {
          "internalType": "uint256",
          "name": "",
          "type": "uint256"
        }
      ],
      "stateMutability": "view",
      "type": "function"
    },
    {
      "inputs": [],
      "name": "ticketPrice",
      "outputs": [
        {
          "internalType": "uint256",
          "name": "",
          "type": "uint256"
        }
      ],
      "stateMutability": "view",
      "type": "function"
    },
    {
      "inputs": [
        {
          "internalType": "uint256",
          "name": "",
          "type": "uint256"
        }
      ],
      "name": "tickets",
      "outputs": [
        {
          "internalType": "address",
          "name": "",
          "type": "address"
        }
      ],
      "stateMutability": "view",
      "type": "function"
    },
    {
      "inputs": [
        {
          "internalType": "address",
          "name": "",
          "type": "address"
        }
      ],
      "name": "winnings",
      "outputs": [
        {
          "internalType": "uint256",
          "name": "",
          "type": "uint256"
        }
      ],
      "stateMutability": "view",
      "type": "function"
    }
  ],
  "devdoc": {
    "kind": "dev",
    "methods": {},
    "version": 1
  },
  "evm": {
    "assembly": "    /* \"Lottery.sol\":127:5025  contract Lottery {... */\n  mstore(0x40, 0x80)\n    /* \"Lottery.sol\":655:656  0 */\n  0x00\n    /* \"Lottery.sol\":614:656  uint256 public operatorTotalCommission = 0 */\n  0x02\n  sstore\n    /* \"Lottery.sol\":1380:1491  constructor() {... */\n  callvalue\n  dup1\n  iszero\n  tag_1\n  jumpi\n  0x00\n  dup1\n  revert\ntag_1:\n  pop\n    /* \"Lottery.sol\":1405:1420  lotteryOperator */\n  0x01\n    /* \"Lottery.sol\":1405:1433  lotteryOperator = msg.sender */\n  dup1\n  sload\n  not(sub(shl(0xa0, 0x01), 0x01))\n  and\n    /* \"Lottery.sol\":1423:1433  msg.sender */\n  caller\n    /* \"Lottery.sol\":1405:1433  lotteryOperator = msg.sender */\n  or\n  swap1\n  sstore\n    /* \"Lottery.sol\":1457:1483  block.timestamp + duration */\n  tag_4\n    /* \"Lottery.sol\":404:414  30 minutes */\n  0x0708\n    /* \"Lottery.sol\":1457:1472  block.timestamp */\n  timestamp\n    /* \"Lottery.sol\":1457:1483  block.timestamp + duration */\n  tag_5\n  jump\t// in\ntag_4:\n    /* \"Lottery.sol\":1444:1454  expiration */\n  0x00\n    /* \"Lottery.sol\":1444:1483  expiration = block.timestamp + duration */\n  sstore\n    /* \"Lottery.sol\":127:5025  contract Lottery {... */\n  jump(tag_7)\n    /* \"#utility.yul\":14:236   */\ntag_5:\n    /* \"#utility.yul\":79:88   */\n  dup1\n  dup3\n  add\n    /* \"#utility.yul\":100:110   */\n  dup1\n  dup3\n  gt\n    /* \"#utility.yul\":97:230   */\n  iszero\n  tag_9\n  jumpi\n    /* \"#utility.yul\":152:162   */\n  0x4e487b71\n    /* \"#utility.yul\":147:150   */\n  0xe0\n    /* \"#utility.yul\":143:163   */\n  shl\n    /* \"#utility.yul\":140:141   */\n  0x00\n    /* \"#utility.yul\":133:164   */\n  mstore\n    /* \"#utility.yul\":187:191   */\n  0x11\n    /* \"#utility.yul\":184:185   */\n  0x04\n    /* \"#utility.yul\":177:192   */\n  mstore\n    /* \"#utility.yul\":215:219   */\n  0x24\n    /* \"#utility.yul\":212:213   */\n  0x00\n    /* \"#utility.yul\":205:220   */\n  revert\n    /* \"#utility.yul\":97:230   */\ntag_9:\n    /* \"#utility.yul\":14:236   */\n  swap3\n  swap2\n  pop\n  pop\n  jump\t// out\ntag_7:\n    /* \"Lottery.sol\":127:5025  contract Lottery {... */\n  dataSize(sub_0)\n  dup1\n  dataOffset(sub_0)\n  0x00\n  codecopy\n  0x00\n  return\nstop\n\nsub_0: assembly {\n        /* \"Lottery.sol\":127:5025  contract Lottery {... */\n      mstore(0x40, 0x80)\n      jumpi(tag_1, lt(calldatasize, 0x04))\n      shr(0xe0, calldataload(0x00))\n      dup1\n      0x71827b7b\n      gt\n      tag_26\n      jumpi\n      dup1\n      0xba946d79\n      gt\n      tag_27\n      jumpi\n      dup1\n      0xea3a1499\n      gt\n      tag_28\n      jumpi\n      dup1\n      0xea3a1499\n      eq\n      tag_23\n      jumpi\n      dup1\n      0xf2613269\n      eq\n      tag_24\n      jumpi\n      dup1\n      0xfe188184\n      eq\n      tag_25\n      jumpi\n      0x00\n      dup1\n      revert\n    tag_28:\n      dup1\n      0xba946d79\n      eq\n      tag_20\n      jumpi\n      dup1\n      0xc6944fa0\n      eq\n      tag_21\n      jumpi\n      dup1\n      0xdd64e534\n      eq\n      tag_22\n      jumpi\n      0x00\n      dup1\n      revert\n    tag_27:\n      dup1\n      0x96c85ef3\n      gt\n      tag_29\n      jumpi\n      dup1\n      0x96c85ef3\n      eq\n      tag_17\n      jumpi\n      dup1\n      0x9b894703\n      eq\n      tag_18\n      jumpi\n      dup1\n      0xa88f4672\n      eq\n      tag_19\n      jumpi\n      0x00\n      dup1\n      revert\n    tag_29:\n      dup1\n      0x71827b7b\n      eq\n      tag_14\n      jumpi\n      dup1\n      0x91d8b14e\n      eq\n      tag_15\n      jumpi\n      dup1\n      0x93a563b5\n      eq\n      tag_16\n      jumpi\n      0x00\n      dup1\n      revert\n    tag_26:\n      dup1\n      0x4665096d\n      gt\n      tag_30\n      jumpi\n      dup1\n      0x50b44712\n      gt\n      tag_31\n      jumpi\n      dup1\n      0x50b44712\n      eq\n      tag_11\n      jumpi\n      dup1\n      0x5a58acdd\n      eq\n      tag_12\n      jumpi\n      dup1\n      0x6032a4f9\n      eq\n      tag_13\n      jumpi\n      0x00\n      dup1\n      revert\n    tag_31:\n      dup1\n      0x4665096d\n      eq\n      tag_8\n      jumpi\n      dup1\n      0x4788af7c\n      eq\n      tag_9\n      jumpi\n      dup1\n      0x4ed02622\n      eq\n      tag_10\n      jumpi\n      0x00\n      dup1\n      revert\n    tag_30:\n      dup1\n      0x1057886b\n      gt\n      tag_32\n      jumpi\n      dup1\n      0x1057886b\n      eq\n      tag_5\n      jumpi\n      dup1\n      0x1209b1f6\n      eq\n      tag_6\n      jumpi\n      dup1\n      0x35580df2\n      eq\n      tag_7\n      jumpi\n      0x00\n      dup1\n      revert\n    tag_32:\n      dup1\n      0x06f7f3bf\n      eq\n      tag_2\n      jumpi\n      dup1\n      0x0789c607\n      eq\n      tag_3\n      jumpi\n      dup1\n      0x0fb5a6b4\n      eq\n      tag_4\n      jumpi\n    tag_1:\n      0x00\n      dup1\n      revert\n        /* \"Lottery.sol\":761:792  uint256 public lastWinnerAmount */\n    tag_2:\n      callvalue\n      dup1\n      iszero\n      tag_33\n      jumpi\n      0x00\n      dup1\n      revert\n    tag_33:\n      pop\n      tag_34\n      sload(0x04)\n      dup2\n      jump\n    tag_34:\n      mload(0x40)\n        /* \"#utility.yul\":160:185   */\n      swap1\n      dup2\n      mstore\n        /* \"#utility.yul\":148:150   */\n      0x20\n        /* \"#utility.yul\":133:151   */\n      add\n        /* \"Lottery.sol\":761:792  uint256 public lastWinnerAmount */\n    tag_36:\n      mload(0x40)\n      dup1\n      swap2\n      sub\n      swap1\n      return\n        /* \"Lottery.sol\":3587:3801  function checkWinningsAmount() public view returns (uint256) {... */\n    tag_3:\n      callvalue\n      dup1\n      iszero\n      tag_38\n      jumpi\n      0x00\n      dup1\n      revert\n    tag_38:\n      pop\n        /* \"Lottery.sol\":3692:3702  msg.sender */\n      caller\n        /* \"Lottery.sol\":3639:3646  uint256 */\n      0x00\n        /* \"Lottery.sol\":3742:3758  winnings[winner] */\n      swap1\n      dup2\n      mstore\n        /* \"Lottery.sol\":3742:3750  winnings */\n      0x05\n        /* \"Lottery.sol\":3742:3758  winnings[winner] */\n      0x20\n      mstore\n      0x40\n      swap1\n      keccak256\n      sload\n        /* \"Lottery.sol\":3587:3801  function checkWinningsAmount() public view returns (uint256) {... */\n      jump(tag_34)\n        /* \"Lottery.sol\":369:414  uint256 public constant duration = 30 minutes */\n    tag_4:\n      callvalue\n      dup1\n      iszero\n      tag_42\n      jumpi\n      0x00\n      dup1\n      revert\n    tag_42:\n      pop\n      tag_34\n        /* \"Lottery.sol\":404:414  30 minutes */\n      0x0708\n        /* \"Lottery.sol\":369:414  uint256 public constant duration = 30 minutes */\n      dup2\n      jump\n        /* \"Lottery.sol\":1499:1764  function getSenderTickets () public view returns (uint256) {... */\n    tag_5:\n      callvalue\n      dup1\n      iszero\n      tag_46\n      jumpi\n      0x00\n      dup1\n      revert\n    tag_46:\n      pop\n      tag_34\n      tag_48\n      jump\t// in\n        /* \"Lottery.sol\":151:199  uint256 public constant ticketPrice = 0.01 ether */\n    tag_6:\n      callvalue\n      dup1\n      iszero\n      tag_50\n      jumpi\n      0x00\n      dup1\n      revert\n    tag_50:\n      pop\n      tag_34\n        /* \"Lottery.sol\":189:199  0.01 ether */\n      0x2386f26fc10000\n        /* \"Lottery.sol\":151:199  uint256 public constant ticketPrice = 0.01 ether */\n      dup2\n      jump\n        /* \"Lottery.sol\":4406:4674  function WithdrawCommission() public isOperator {... */\n    tag_7:\n      callvalue\n      dup1\n      iszero\n      tag_54\n      jumpi\n      0x00\n      dup1\n      revert\n    tag_54:\n      pop\n      tag_55\n      tag_56\n      jump\t// in\n    tag_55:\n      stop\n        /* \"Lottery.sol\":459:484  uint256 public expiration */\n    tag_8:\n      callvalue\n      dup1\n      iszero\n      tag_57\n      jumpi\n      0x00\n      dup1\n      revert\n    tag_57:\n      pop\n      tag_34\n      sload(0x00)\n      dup2\n      jump\n        /* \"Lottery.sol\":2626:3364  function DrawWinnerTicket() public isOperator {... */\n    tag_9:\n      callvalue\n      dup1\n      iszero\n      tag_61\n      jumpi\n      0x00\n      dup1\n      revert\n    tag_61:\n      pop\n      tag_55\n      tag_63\n      jump\t// in\n        /* \"Lottery.sol\":1803:1897  function getTickets() public view returns (address[] memory) {... */\n    tag_10:\n      callvalue\n      dup1\n      iszero\n      tag_64\n      jumpi\n      0x00\n      dup1\n      revert\n    tag_64:\n      pop\n      tag_65\n      tag_66\n      jump\t// in\n    tag_65:\n      mload(0x40)\n      tag_36\n      swap2\n      swap1\n      tag_68\n      jump\t// in\n        /* \"Lottery.sol\":930:954  address[] public tickets */\n    tag_11:\n      callvalue\n      dup1\n      iszero\n      tag_69\n      jumpi\n      0x00\n      dup1\n      revert\n    tag_69:\n      pop\n      tag_70\n      tag_71\n      calldatasize\n      0x04\n      tag_72\n      jump\t// in\n    tag_71:\n      tag_73\n      jump\t// in\n    tag_70:\n      mload(0x40)\n      sub(shl(0xa0, 0x01), 0x01)\n        /* \"#utility.yul\":1231:1286   */\n      swap1\n      swap2\n      and\n        /* \"#utility.yul\":1213:1287   */\n      dup2\n      mstore\n        /* \"#utility.yul\":1201:1203   */\n      0x20\n        /* \"#utility.yul\":1186:1204   */\n      add\n        /* \"Lottery.sol\":930:954  address[] public tickets */\n      tag_36\n        /* \"#utility.yul\":1067:1293   */\n      jump\n        /* \"Lottery.sol\":548:578  address public lotteryOperator */\n    tag_12:\n      callvalue\n      dup1\n      iszero\n      tag_76\n      jumpi\n      0x00\n      dup1\n      revert\n    tag_76:\n      pop\n      sload(0x01)\n      tag_70\n      swap1\n      sub(shl(0xa0, 0x01), 0x01)\n      and\n      dup2\n      jump\n        /* \"Lottery.sol\":284:338  uint256 public constant ticketCommission = 0.001 ether */\n    tag_13:\n      callvalue\n      dup1\n      iszero\n      tag_80\n      jumpi\n      0x00\n      dup1\n      revert\n    tag_80:\n      pop\n      tag_34\n        /* \"Lottery.sol\":327:338  0.001 ether */\n      0x038d7ea4c68000\n        /* \"Lottery.sol\":284:338  uint256 public constant ticketCommission = 0.001 ether */\n      dup2\n      jump\n        /* \"Lottery.sol\":3810:4048  function WithdrawWinnings() public isWinner {... */\n    tag_14:\n      callvalue\n      dup1\n      iszero\n      tag_84\n      jumpi\n      0x00\n      dup1\n      revert\n    tag_84:\n      pop\n      tag_55\n      tag_86\n      jump\t// in\n        /* \"Lottery.sol\":2028:2618  function BuyTickets() public payable {... */\n    tag_15:\n      tag_55\n      tag_88\n      jump\t// in\n        /* \"Lottery.sol\":4911:5022  function RemainingTickets() public view returns (uint256) {... */\n    tag_16:\n      callvalue\n      dup1\n      iszero\n      tag_89\n      jumpi\n      0x00\n      dup1\n      revert\n    tag_89:\n      pop\n      tag_34\n      tag_91\n      jump\t// in\n        /* \"Lottery.sol\":4682:4779  function IsWinner() public view returns (bool) {... */\n    tag_17:\n      callvalue\n      dup1\n      iszero\n      tag_93\n      jumpi\n      0x00\n      dup1\n      revert\n    tag_93:\n      pop\n        /* \"Lottery.sol\":4756:4766  msg.sender */\n      caller\n        /* \"Lottery.sol\":4723:4727  bool */\n      0x00\n        /* \"Lottery.sol\":4747:4767  winnings[msg.sender] */\n      swap1\n      dup2\n      mstore\n        /* \"Lottery.sol\":4747:4755  winnings */\n      0x05\n        /* \"Lottery.sol\":4747:4767  winnings[msg.sender] */\n      0x20\n      mstore\n      0x40\n      swap1\n      keccak256\n      sload\n        /* \"Lottery.sol\":4747:4771  winnings[msg.sender] > 0 */\n      iszero\n      iszero\n        /* \"Lottery.sol\":4682:4779  function IsWinner() public view returns (bool) {... */\n      mload(0x40)\n        /* \"#utility.yul\":1463:1477   */\n      swap1\n      iszero\n        /* \"#utility.yul\":1456:1478   */\n      iszero\n        /* \"#utility.yul\":1438:1479   */\n      dup2\n      mstore\n        /* \"#utility.yul\":1426:1428   */\n      0x20\n        /* \"#utility.yul\":1411:1429   */\n      add\n        /* \"Lottery.sol\":4682:4779  function IsWinner() public view returns (bool) {... */\n      tag_36\n        /* \"#utility.yul\":1298:1485   */\n      jump\n        /* \"Lottery.sol\":206:246  uint256 public constant maxTickets = 100 */\n    tag_18:\n      callvalue\n      dup1\n      iszero\n      tag_98\n      jumpi\n      0x00\n      dup1\n      revert\n    tag_98:\n      pop\n      tag_34\n        /* \"Lottery.sol\":243:246  100 */\n      0x64\n        /* \"Lottery.sol\":206:246  uint256 public constant maxTickets = 100 */\n      dup2\n      jump\n        /* \"Lottery.sol\":4056:4398  function RefundAll() public {... */\n    tag_19:\n      callvalue\n      dup1\n      iszero\n      tag_102\n      jumpi\n      0x00\n      dup1\n      revert\n    tag_102:\n      pop\n      tag_55\n      tag_104\n      jump\t// in\n        /* \"Lottery.sol\":614:656  uint256 public operatorTotalCommission = 0 */\n    tag_20:\n      callvalue\n      dup1\n      iszero\n      tag_105\n      jumpi\n      0x00\n      dup1\n      revert\n    tag_105:\n      pop\n      tag_34\n      sload(0x02)\n      dup2\n      jump\n        /* \"Lottery.sol\":4787:4903  function CurrentWinningReward() public view returns (uint256) {... */\n    tag_21:\n      callvalue\n      dup1\n      iszero\n      tag_109\n      jumpi\n      0x00\n      dup1\n      revert\n    tag_109:\n      pop\n      tag_34\n      tag_111\n      jump\t// in\n        /* \"Lottery.sol\":1905:2020  function getWinningsForAddress(address addr) public view returns (uint256) {... */\n    tag_22:\n      callvalue\n      dup1\n      iszero\n      tag_113\n      jumpi\n      0x00\n      dup1\n      revert\n    tag_113:\n      pop\n      tag_34\n      tag_115\n      calldatasize\n      0x04\n      tag_116\n      jump\t// in\n    tag_115:\n      sub(shl(0xa0, 0x01), 0x01)\n        /* \"Lottery.sol\":1998:2012  winnings[addr] */\n      and\n        /* \"Lottery.sol\":1971:1978  uint256 */\n      0x00\n        /* \"Lottery.sol\":1998:2012  winnings[addr] */\n      swap1\n      dup2\n      mstore\n        /* \"Lottery.sol\":1998:2006  winnings */\n      0x05\n        /* \"Lottery.sol\":1998:2012  winnings[addr] */\n      0x20\n      mstore\n      0x40\n      swap1\n      keccak256\n      sload\n      swap1\n        /* \"Lottery.sol\":1905:2020  function getWinningsForAddress(address addr) public view returns (uint256) {... */\n      jump\n        /* \"Lottery.sol\":842:885  mapping(address => uint256) public winnings */\n    tag_23:\n      callvalue\n      dup1\n      iszero\n      tag_119\n      jumpi\n      0x00\n      dup1\n      revert\n    tag_119:\n      pop\n      tag_34\n      tag_121\n      calldatasize\n      0x04\n      tag_116\n      jump\t// in\n    tag_121:\n      mstore(0x20, 0x05)\n      0x00\n      swap1\n      dup2\n      mstore\n      0x40\n      swap1\n      keccak256\n      sload\n      dup2\n      jump\n        /* \"Lottery.sol\":3372:3579  function restartDraw() public isOperator {... */\n    tag_24:\n      callvalue\n      dup1\n      iszero\n      tag_124\n      jumpi\n      0x00\n      dup1\n      revert\n    tag_124:\n      pop\n      tag_55\n      tag_126\n      jump\t// in\n        /* \"Lottery.sol\":695:720  address public lastWinner */\n    tag_25:\n      callvalue\n      dup1\n      iszero\n      tag_127\n      jumpi\n      0x00\n      dup1\n      revert\n    tag_127:\n      pop\n      sload(0x03)\n      tag_70\n      swap1\n      sub(shl(0xa0, 0x01), 0x01)\n      and\n      dup2\n      jump\n        /* \"Lottery.sol\":1499:1764  function getSenderTickets () public view returns (uint256) {... */\n    tag_48:\n        /* \"Lottery.sol\":1549:1556  uint256 */\n      0x00\n      dup1\n      dup1\n        /* \"Lottery.sol\":1594:1734  for (uint i = 0; i < tickets.length; i++) {... */\n    tag_133:\n        /* \"Lottery.sol\":1615:1622  tickets */\n      0x06\n        /* \"Lottery.sol\":1615:1629  tickets.length */\n      sload\n        /* \"Lottery.sol\":1611:1629  i < tickets.length */\n      dup2\n      lt\n        /* \"Lottery.sol\":1594:1734  for (uint i = 0; i < tickets.length; i++) {... */\n      iszero\n      tag_134\n      jumpi\n        /* \"Lottery.sol\":1669:1679  msg.sender */\n      caller\n      sub(shl(0xa0, 0x01), 0x01)\n        /* \"Lottery.sol\":1655:1679  tickets[i] == msg.sender */\n      and\n        /* \"Lottery.sol\":1655:1662  tickets */\n      0x06\n        /* \"Lottery.sol\":1663:1664  i */\n      dup3\n        /* \"Lottery.sol\":1655:1665  tickets[i] */\n      dup2\n      sload\n      dup2\n      lt\n      tag_137\n      jumpi\n      tag_137\n      tag_138\n      jump\t// in\n    tag_137:\n      0x00\n      swap2\n      dup3\n      mstore\n      0x20\n      swap1\n      swap2\n      keccak256\n      add\n      sload\n      sub(shl(0xa0, 0x01), 0x01)\n      and\n        /* \"Lottery.sol\":1655:1679  tickets[i] == msg.sender */\n      sub\n        /* \"Lottery.sol\":1651:1723  if (tickets[i] == msg.sender) {... */\n      tag_140\n      jumpi\n        /* \"Lottery.sol\":1700:1707  count++ */\n      dup2\n      tag_141\n      dup2\n      tag_142\n      jump\t// in\n    tag_141:\n      swap3\n      pop\n      pop\n        /* \"Lottery.sol\":1651:1723  if (tickets[i] == msg.sender) {... */\n    tag_140:\n        /* \"Lottery.sol\":1631:1634  i++ */\n      dup1\n      tag_143\n      dup2\n      tag_142\n      jump\t// in\n    tag_143:\n      swap2\n      pop\n      pop\n        /* \"Lottery.sol\":1594:1734  for (uint i = 0; i < tickets.length; i++) {... */\n      jump(tag_133)\n    tag_134:\n      pop\n        /* \"Lottery.sol\":1751:1756  count */\n      swap2\n        /* \"Lottery.sol\":1499:1764  function getSenderTickets () public view returns (uint256) {... */\n      swap1\n      pop\n      jump\t// out\n        /* \"Lottery.sol\":4406:4674  function WithdrawCommission() public isOperator {... */\n    tag_56:\n        /* \"Lottery.sol\":1122:1137  lotteryOperator */\n      and(sub(shl(0xa0, 0x01), 0x01), sload(0x01))\n        /* \"Lottery.sol\":1108:1118  msg.sender */\n      caller\n        /* \"Lottery.sol\":1108:1137  msg.sender == lotteryOperator */\n      eq\n        /* \"Lottery.sol\":1085:1200  require(... */\n      tag_145\n      jumpi\n      mload(0x40)\n      shl(0xe5, 0x461bcd)\n      dup2\n      mstore\n        /* \"#utility.yul\":2410:2412   */\n      0x20\n        /* \"Lottery.sol\":1085:1200  require(... */\n      0x04\n      dup3\n      add\n        /* \"#utility.yul\":2392:2413   */\n      mstore\n        /* \"#utility.yul\":2449:2451   */\n      0x22\n        /* \"#utility.yul\":2429:2447   */\n      0x24\n      dup3\n      add\n        /* \"#utility.yul\":2422:2452   */\n      mstore\n        /* \"#utility.yul\":2488:2522   */\n      0x43616c6c6572206973206e6f7420746865206c6f7474657279206f7065726174\n        /* \"#utility.yul\":2468:2486   */\n      0x44\n      dup3\n      add\n        /* \"#utility.yul\":2461:2523   */\n      mstore\n      shl(0xf1, 0x37b9)\n        /* \"#utility.yul\":2539:2557   */\n      0x64\n      dup3\n      add\n        /* \"#utility.yul\":2532:2564   */\n      mstore\n        /* \"#utility.yul\":2581:2600   */\n      0x84\n      add\n        /* \"Lottery.sol\":1085:1200  require(... */\n    tag_146:\n      mload(0x40)\n      dup1\n      swap2\n      sub\n      swap1\n      revert\n    tag_145:\n        /* \"Lottery.sol\":4554:4577  operatorTotalCommission */\n      0x02\n      dup1\n      sload\n        /* \"Lottery.sol\":4465:4489  address payable operator */\n      0x00\n        /* \"Lottery.sol\":4588:4615  operatorTotalCommission = 0 */\n      swap2\n      dup3\n      swap1\n      sstore\n        /* \"Lottery.sol\":4628:4666  operator.transfer(commission2Transfer) */\n      mload(0x40)\n        /* \"Lottery.sol\":4500:4510  msg.sender */\n      caller\n      swap3\n      dup4\n      swap2\n        /* \"Lottery.sol\":4628:4666  operator.transfer(commission2Transfer) */\n      dup4\n      iszero\n      0x08fc\n      mul\n      swap2\n        /* \"Lottery.sol\":4554:4577  operatorTotalCommission */\n      dup5\n      swap2\n        /* \"Lottery.sol\":4628:4666  operator.transfer(commission2Transfer) */\n      swap1\n      dup2\n        /* \"Lottery.sol\":4465:4489  address payable operator */\n      dup2\n        /* \"Lottery.sol\":4628:4666  operator.transfer(commission2Transfer) */\n      dup2\n        /* \"Lottery.sol\":4554:4577  operatorTotalCommission */\n      dup6\n        /* \"Lottery.sol\":4500:4510  msg.sender */\n      dup9\n        /* \"Lottery.sol\":4628:4666  operator.transfer(commission2Transfer) */\n      dup9\n      call\n      swap4\n      pop\n      pop\n      pop\n      pop\n      iszero\n      dup1\n      iszero\n      tag_150\n      jumpi\n      returndatasize\n      0x00\n      dup1\n      returndatacopy\n      revert(0x00, returndatasize)\n    tag_150:\n      pop\n        /* \"Lottery.sol\":4454:4674  {... */\n      pop\n      pop\n        /* \"Lottery.sol\":4406:4674  function WithdrawCommission() public isOperator {... */\n      jump\t// out\n        /* \"Lottery.sol\":2626:3364  function DrawWinnerTicket() public isOperator {... */\n    tag_63:\n        /* \"Lottery.sol\":1122:1137  lotteryOperator */\n      and(sub(shl(0xa0, 0x01), 0x01), sload(0x01))\n        /* \"Lottery.sol\":1108:1118  msg.sender */\n      caller\n        /* \"Lottery.sol\":1108:1137  msg.sender == lotteryOperator */\n      eq\n        /* \"Lottery.sol\":1085:1200  require(... */\n      tag_152\n      jumpi\n      mload(0x40)\n      shl(0xe5, 0x461bcd)\n      dup2\n      mstore\n        /* \"#utility.yul\":2410:2412   */\n      0x20\n        /* \"Lottery.sol\":1085:1200  require(... */\n      0x04\n      dup3\n      add\n        /* \"#utility.yul\":2392:2413   */\n      mstore\n        /* \"#utility.yul\":2449:2451   */\n      0x22\n        /* \"#utility.yul\":2429:2447   */\n      0x24\n      dup3\n      add\n        /* \"#utility.yul\":2422:2452   */\n      mstore\n        /* \"#utility.yul\":2488:2522   */\n      0x43616c6c6572206973206e6f7420746865206c6f7474657279206f7065726174\n        /* \"#utility.yul\":2468:2486   */\n      0x44\n      dup3\n      add\n        /* \"#utility.yul\":2461:2523   */\n      mstore\n      shl(0xf1, 0x37b9)\n        /* \"#utility.yul\":2539:2557   */\n      0x64\n      dup3\n      add\n        /* \"#utility.yul\":2532:2564   */\n      mstore\n        /* \"#utility.yul\":2581:2600   */\n      0x84\n      add\n        /* \"Lottery.sol\":1085:1200  require(... */\n      tag_146\n        /* \"#utility.yul\":2208:2606   */\n      jump\n        /* \"Lottery.sol\":1085:1200  require(... */\n    tag_152:\n        /* \"Lottery.sol\":2691:2698  tickets */\n      0x06\n        /* \"Lottery.sol\":2691:2705  tickets.length */\n      sload\n        /* \"Lottery.sol\":2683:2739  require(tickets.length > 0, \"No tickets were purchased\") */\n      tag_155\n      jumpi\n      mload(0x40)\n      shl(0xe5, 0x461bcd)\n      dup2\n      mstore\n        /* \"#utility.yul\":2813:2815   */\n      0x20\n        /* \"Lottery.sol\":2683:2739  require(tickets.length > 0, \"No tickets were purchased\") */\n      0x04\n      dup3\n      add\n        /* \"#utility.yul\":2795:2816   */\n      mstore\n        /* \"#utility.yul\":2852:2854   */\n      0x19\n        /* \"#utility.yul\":2832:2850   */\n      0x24\n      dup3\n      add\n        /* \"#utility.yul\":2825:2855   */\n      mstore\n        /* \"#utility.yul\":2891:2918   */\n      0x4e6f207469636b65747320776572652070757263686173656400000000000000\n        /* \"#utility.yul\":2871:2889   */\n      0x44\n      dup3\n      add\n        /* \"#utility.yul\":2864:2919   */\n      mstore\n        /* \"#utility.yul\":2936:2954   */\n      0x64\n      add\n        /* \"Lottery.sol\":2683:2739  require(tickets.length > 0, \"No tickets were purchased\") */\n      tag_146\n        /* \"#utility.yul\":2611:2960   */\n      jump\n        /* \"Lottery.sol\":2683:2739  require(tickets.length > 0, \"No tickets were purchased\") */\n    tag_155:\n        /* \"Lottery.sol\":2797:2804  tickets */\n      0x06\n        /* \"Lottery.sol\":2797:2811  tickets.length */\n      sload\n        /* \"Lottery.sol\":2752:2769  bytes32 blockHash */\n      0x00\n      swap1\n        /* \"Lottery.sol\":2782:2811  block.number - tickets.length */\n      tag_158\n      swap1\n        /* \"Lottery.sol\":2782:2794  block.number */\n      number\n        /* \"Lottery.sol\":2782:2811  block.number - tickets.length */\n      tag_159\n      jump\t// in\n    tag_158:\n        /* \"Lottery.sol\":2878:2922  abi.encodePacked(block.timestamp, blockHash) */\n      0x40\n      dup1\n      mload\n        /* \"Lottery.sol\":2895:2910  block.timestamp */\n      timestamp\n        /* \"Lottery.sol\":2878:2922  abi.encodePacked(block.timestamp, blockHash) */\n      0x20\n      dup3\n      add\n        /* \"#utility.yul\":3255:3274   */\n      mstore\n        /* \"Lottery.sol\":2772:2812  blockhash(block.number - tickets.length) */\n      swap2\n      blockhash\n        /* \"#utility.yul\":3290:3302   */\n      swap1\n      dup3\n      add\n        /* \"#utility.yul\":3283:3311   */\n      dup2\n      swap1\n      mstore\n        /* \"Lottery.sol\":2772:2812  blockhash(block.number - tickets.length) */\n      swap2\n      pop\n        /* \"Lottery.sol\":2823:2843  uint256 randomNumber */\n      0x00\n      swap1\n        /* \"#utility.yul\":3327:3339   */\n      0x60\n      add\n        /* \"Lottery.sol\":2878:2922  abi.encodePacked(block.timestamp, blockHash) */\n      0x40\n      dup1\n      mload\n      not(0x1f)\n      dup2\n      dup5\n      sub\n      add\n      dup2\n      mstore\n      swap2\n      swap1\n      mstore\n        /* \"Lottery.sol\":2868:2923  keccak256(abi.encodePacked(block.timestamp, blockHash)) */\n      dup1\n      mload\n        /* \"Lottery.sol\":2878:2922  abi.encodePacked(block.timestamp, blockHash) */\n      0x20\n        /* \"Lottery.sol\":2868:2923  keccak256(abi.encodePacked(block.timestamp, blockHash)) */\n      swap1\n      swap2\n      add\n      keccak256\n        /* \"Lottery.sol\":2984:2991  tickets */\n      0x06\n        /* \"Lottery.sol\":2984:2998  tickets.length */\n      sload\n        /* \"Lottery.sol\":2868:2923  keccak256(abi.encodePacked(block.timestamp, blockHash)) */\n      swap1\n      swap2\n      pop\n        /* \"Lottery.sol\":2846:2934  uint256(... */\n      0x00\n      swap1\n        /* \"Lottery.sol\":2969:2998  randomNumber % tickets.length */\n      tag_162\n      swap1\n        /* \"Lottery.sol\":2868:2923  keccak256(abi.encodePacked(block.timestamp, blockHash)) */\n      dup4\n        /* \"Lottery.sol\":2969:2998  randomNumber % tickets.length */\n      tag_163\n      jump\t// in\n    tag_162:\n        /* \"Lottery.sol\":2945:2998  uint256 winningTicket = randomNumber % tickets.length */\n      swap1\n      pop\n        /* \"Lottery.sol\":3011:3025  address winner */\n      0x00\n        /* \"Lottery.sol\":3028:3035  tickets */\n      0x06\n        /* \"Lottery.sol\":3036:3049  winningTicket */\n      dup3\n        /* \"Lottery.sol\":3028:3050  tickets[winningTicket] */\n      dup2\n      sload\n      dup2\n      lt\n      tag_165\n      jumpi\n      tag_165\n      tag_138\n      jump\t// in\n    tag_165:\n      0x00\n      swap2\n      dup3\n      mstore\n      0x20\n      swap1\n      swap2\n      keccak256\n      add\n      sload\n        /* \"Lottery.sol\":3061:3071  lastWinner */\n      0x03\n        /* \"Lottery.sol\":3061:3080  lastWinner = winner */\n      dup1\n      sload\n      not(0xffffffffffffffffffffffffffffffffffffffff)\n      and\n      sub(shl(0xa0, 0x01), 0x01)\n        /* \"Lottery.sol\":3028:3050  tickets[winningTicket] */\n      swap1\n      swap3\n      and\n        /* \"Lottery.sol\":3061:3080  lastWinner = winner */\n      swap2\n      dup3\n      or\n      swap1\n      sstore\n        /* \"Lottery.sol\":3028:3050  tickets[winningTicket] */\n      swap1\n      pop\n        /* \"Lottery.sol\":3130:3160  ticketPrice - ticketCommission */\n      tag_167\n        /* \"Lottery.sol\":327:338  0.001 ether */\n      0x038d7ea4c68000\n        /* \"Lottery.sol\":189:199  0.01 ether */\n      0x2386f26fc10000\n        /* \"Lottery.sol\":3130:3160  ticketPrice - ticketCommission */\n      tag_159\n      jump\t// in\n    tag_167:\n        /* \"Lottery.sol\":3112:3119  tickets */\n      0x06\n        /* \"Lottery.sol\":3112:3126  tickets.length */\n      sload\n        /* \"Lottery.sol\":3112:3161  tickets.length * (ticketPrice - ticketCommission) */\n      tag_168\n      swap2\n      swap1\n      tag_169\n      jump\t// in\n    tag_168:\n      sub(shl(0xa0, 0x01), 0x01)\n        /* \"Lottery.sol\":3091:3107  winnings[winner] */\n      dup3\n      and\n      0x00\n      swap1\n      dup2\n      mstore\n        /* \"Lottery.sol\":3091:3099  winnings */\n      0x05\n        /* \"Lottery.sol\":3091:3107  winnings[winner] */\n      0x20\n      mstore\n      0x40\n      dup2\n      keccak256\n        /* \"Lottery.sol\":3091:3162  winnings[winner] += (tickets.length * (ticketPrice - ticketCommission)) */\n      dup1\n      sload\n        /* \"Lottery.sol\":3091:3107  winnings[winner] */\n      swap1\n      swap2\n      swap1\n        /* \"Lottery.sol\":3091:3162  winnings[winner] += (tickets.length * (ticketPrice - ticketCommission)) */\n      tag_170\n      swap1\n      dup5\n      swap1\n      tag_171\n      jump\t// in\n    tag_170:\n      swap1\n      swap2\n      sstore\n      pop\n      pop\n      sub(shl(0xa0, 0x01), 0x01)\n        /* \"Lottery.sol\":3192:3208  winnings[winner] */\n      dup2\n      and\n      0x00\n      swap1\n      dup2\n      mstore\n        /* \"Lottery.sol\":3192:3200  winnings */\n      0x05\n        /* \"Lottery.sol\":3192:3208  winnings[winner] */\n      0x20\n      mstore\n      0x40\n      swap1\n      keccak256\n      sload\n        /* \"Lottery.sol\":3173:3189  lastWinnerAmount */\n      0x04\n        /* \"Lottery.sol\":3173:3208  lastWinnerAmount = winnings[winner] */\n      sstore\n        /* \"Lottery.sol\":3247:3254  tickets */\n      0x06\n        /* \"Lottery.sol\":3247:3261  tickets.length */\n      sload\n        /* \"Lottery.sol\":3247:3280  tickets.length * ticketCommission */\n      tag_172\n      swap1\n        /* \"Lottery.sol\":327:338  0.001 ether */\n      0x038d7ea4c68000\n      swap1\n        /* \"Lottery.sol\":3247:3280  tickets.length * ticketCommission */\n      tag_169\n      jump\t// in\n    tag_172:\n        /* \"Lottery.sol\":3219:3242  operatorTotalCommission */\n      0x02\n      0x00\n        /* \"Lottery.sol\":3219:3281  operatorTotalCommission += (tickets.length * ticketCommission) */\n      dup3\n      dup3\n      sload\n      tag_173\n      swap2\n      swap1\n      tag_171\n      jump\t// in\n    tag_173:\n      swap1\n      swap2\n      sstore\n      pop\n        /* \"Lottery.sol\":3292:3306  delete tickets */\n      tag_174\n      swap1\n      pop\n        /* \"Lottery.sol\":3299:3306  tickets */\n      0x06\n      0x00\n        /* \"Lottery.sol\":3292:3306  delete tickets */\n      tag_175\n      jump\t// in\n    tag_174:\n        /* \"Lottery.sol\":3330:3356  block.timestamp + duration */\n      tag_176\n        /* \"Lottery.sol\":404:414  30 minutes */\n      0x0708\n        /* \"Lottery.sol\":3330:3345  block.timestamp */\n      timestamp\n        /* \"Lottery.sol\":3330:3356  block.timestamp + duration */\n      tag_171\n      jump\t// in\n    tag_176:\n        /* \"Lottery.sol\":3317:3327  expiration */\n      0x00\n        /* \"Lottery.sol\":3317:3356  expiration = block.timestamp + duration */\n      sstore\n      pop\n      pop\n      pop\n      pop\n        /* \"Lottery.sol\":2626:3364  function DrawWinnerTicket() public isOperator {... */\n      jump\t// out\n        /* \"Lottery.sol\":1803:1897  function getTickets() public view returns (address[] memory) {... */\n    tag_66:\n        /* \"Lottery.sol\":1846:1862  address[] memory */\n      0x60\n        /* \"Lottery.sol\":1882:1889  tickets */\n      0x06\n        /* \"Lottery.sol\":1875:1889  return tickets */\n      dup1\n      sload\n      dup1\n      0x20\n      mul\n      0x20\n      add\n      mload(0x40)\n      swap1\n      dup2\n      add\n      0x40\n      mstore\n      dup1\n      swap3\n      swap2\n      swap1\n      dup2\n      dup2\n      mstore\n      0x20\n      add\n      dup3\n      dup1\n      sload\n      dup1\n      iszero\n      tag_178\n      jumpi\n      0x20\n      mul\n      dup3\n      add\n      swap2\n      swap1\n      0x00\n      mstore\n      keccak256(0x00, 0x20)\n      swap1\n    tag_179:\n      dup2\n      sload\n      sub(shl(0xa0, 0x01), 0x01)\n      and\n      dup2\n      mstore\n      0x01\n      swap1\n      swap2\n      add\n      swap1\n      0x20\n      add\n      dup1\n      dup4\n      gt\n      tag_179\n      jumpi\n    tag_178:\n      pop\n      pop\n      pop\n      pop\n      pop\n      swap1\n      pop\n        /* \"Lottery.sol\":1803:1897  function getTickets() public view returns (address[] memory) {... */\n      swap1\n      jump\t// out\n        /* \"Lottery.sol\":930:954  address[] public tickets */\n    tag_73:\n      0x06\n      dup2\n      dup2\n      sload\n      dup2\n      lt\n      tag_180\n      jumpi\n      0x00\n      dup1\n      revert\n    tag_180:\n      0x00\n      swap2\n      dup3\n      mstore\n      0x20\n      swap1\n      swap2\n      keccak256\n      add\n      sload\n      sub(shl(0xa0, 0x01), 0x01)\n      and\n      swap1\n      pop\n      dup2\n      jump\t// out\n        /* \"Lottery.sol\":3810:4048  function WithdrawWinnings() public isWinner {... */\n    tag_86:\n        /* \"Lottery.sol\":4756:4766  msg.sender */\n      caller\n        /* \"Lottery.sol\":4723:4727  bool */\n      0x00\n        /* \"Lottery.sol\":4747:4767  winnings[msg.sender] */\n      swap1\n      dup2\n      mstore\n        /* \"Lottery.sol\":4747:4755  winnings */\n      0x05\n        /* \"Lottery.sol\":4747:4767  winnings[msg.sender] */\n      0x20\n      mstore\n      0x40\n      swap1\n      keccak256\n      sload\n        /* \"Lottery.sol\":1307:1352  require(IsWinner(), \"Caller is not a winner\") */\n      tag_184\n      jumpi\n      mload(0x40)\n      shl(0xe5, 0x461bcd)\n      dup2\n      mstore\n        /* \"#utility.yul\":4104:4106   */\n      0x20\n        /* \"Lottery.sol\":1307:1352  require(IsWinner(), \"Caller is not a winner\") */\n      0x04\n      dup3\n      add\n        /* \"#utility.yul\":4086:4107   */\n      mstore\n        /* \"#utility.yul\":4143:4145   */\n      0x16\n        /* \"#utility.yul\":4123:4141   */\n      0x24\n      dup3\n      add\n        /* \"#utility.yul\":4116:4146   */\n      mstore\n        /* \"#utility.yul\":4182:4206   */\n      0x43616c6c6572206973206e6f7420612077696e6e657200000000000000000000\n        /* \"#utility.yul\":4162:4180   */\n      0x44\n      dup3\n      add\n        /* \"#utility.yul\":4155:4207   */\n      mstore\n        /* \"#utility.yul\":4224:4242   */\n      0x64\n      add\n        /* \"Lottery.sol\":1307:1352  require(IsWinner(), \"Caller is not a winner\") */\n      tag_146\n        /* \"#utility.yul\":3902:4248   */\n      jump\n        /* \"Lottery.sol\":1307:1352  require(IsWinner(), \"Caller is not a winner\") */\n    tag_184:\n        /* \"Lottery.sol\":3898:3908  msg.sender */\n      caller\n        /* \"Lottery.sol\":3865:3887  address payable winner */\n      0x00\n        /* \"Lottery.sol\":3948:3964  winnings[winner] */\n      dup2\n      dup2\n      mstore\n        /* \"Lottery.sol\":3948:3956  winnings */\n      0x05\n        /* \"Lottery.sol\":3948:3964  winnings[winner] */\n      0x20\n      mstore\n      0x40\n      dup1\n      dup3\n      keccak256\n      dup1\n      sload\n        /* \"Lottery.sol\":3975:3995  winnings[winner] = 0 */\n      swap1\n      dup4\n      swap1\n      sstore\n        /* \"Lottery.sol\":4008:4040  winner.transfer(reward2Transfer) */\n      swap1\n      mload\n        /* \"Lottery.sol\":3948:3964  winnings[winner] */\n      swap1\n      swap2\n        /* \"Lottery.sol\":3898:3908  msg.sender */\n      dup4\n      swap2\n        /* \"Lottery.sol\":4008:4040  winner.transfer(reward2Transfer) */\n      dup4\n      iszero\n      0x08fc\n      mul\n      swap2\n        /* \"Lottery.sol\":3948:3964  winnings[winner] */\n      dup5\n      swap2\n        /* \"Lottery.sol\":4008:4040  winner.transfer(reward2Transfer) */\n      swap1\n      dup2\n        /* \"Lottery.sol\":3865:3887  address payable winner */\n      dup2\n        /* \"Lottery.sol\":4008:4040  winner.transfer(reward2Transfer) */\n      dup2\n        /* \"Lottery.sol\":3948:3964  winnings[winner] */\n      dup6\n        /* \"Lottery.sol\":3898:3908  msg.sender */\n      dup9\n        /* \"Lottery.sol\":4008:4040  winner.transfer(reward2Transfer) */\n      dup9\n      call\n      swap4\n      pop\n      pop\n      pop\n      pop\n      iszero\n      dup1\n      iszero\n      tag_150\n      jumpi\n      returndatasize\n      0x00\n      dup1\n      returndatacopy\n      revert(0x00, returndatasize)\n        /* \"Lottery.sol\":2028:2618  function BuyTickets() public payable {... */\n    tag_88:\n        /* \"Lottery.sol\":2098:2121  msg.value % ticketPrice */\n      tag_191\n        /* \"Lottery.sol\":189:199  0.01 ether */\n      0x2386f26fc10000\n        /* \"Lottery.sol\":2098:2107  msg.value */\n      callvalue\n        /* \"Lottery.sol\":2098:2121  msg.value % ticketPrice */\n      tag_163\n      jump\t// in\n    tag_191:\n        /* \"Lottery.sol\":2098:2126  msg.value % ticketPrice == 0 */\n      iszero\n        /* \"Lottery.sol\":2224:2253  Strings.toString(ticketPrice) */\n      tag_192\n        /* \"Lottery.sol\":189:199  0.01 ether */\n      0x2386f26fc10000\n        /* \"Lottery.sol\":2224:2240  Strings.toString */\n      tag_193\n        /* \"Lottery.sol\":2224:2253  Strings.toString(ticketPrice) */\n      jump\t// in\n    tag_192:\n        /* \"Lottery.sol\":2141:2295  string.concat(... */\n      add(0x20, mload(0x40))\n      tag_194\n      swap2\n      swap1\n      tag_195\n      jump\t// in\n    tag_194:\n      mload(0x40)\n      0x20\n      dup2\n      dup4\n      sub\n      sub\n      dup2\n      mstore\n      swap1\n      0x40\n      mstore\n        /* \"Lottery.sol\":2076:2306  require(... */\n      swap1\n      tag_196\n      jumpi\n      mload(0x40)\n      shl(0xe5, 0x461bcd)\n      dup2\n      mstore\n      0x04\n      add\n      tag_146\n      swap2\n      swap1\n      tag_198\n      jump\t// in\n    tag_196:\n      pop\n        /* \"Lottery.sol\":2317:2342  uint256 numOfTicketsToBuy */\n      0x00\n        /* \"Lottery.sol\":2345:2368  msg.value / ticketPrice */\n      tag_199\n        /* \"Lottery.sol\":189:199  0.01 ether */\n      0x2386f26fc10000\n        /* \"Lottery.sol\":2345:2354  msg.value */\n      callvalue\n        /* \"Lottery.sol\":2345:2368  msg.value / ticketPrice */\n      tag_200\n      jump\t// in\n    tag_199:\n        /* \"Lottery.sol\":2317:2368  uint256 numOfTicketsToBuy = msg.value / ticketPrice */\n      swap1\n      pop\n        /* \"Lottery.sol\":2424:2442  RemainingTickets() */\n      tag_201\n        /* \"Lottery.sol\":2424:2440  RemainingTickets */\n      tag_91\n        /* \"Lottery.sol\":2424:2442  RemainingTickets() */\n      jump\t// in\n    tag_201:\n        /* \"Lottery.sol\":2403:2420  numOfTicketsToBuy */\n      dup2\n        /* \"Lottery.sol\":2403:2442  numOfTicketsToBuy <= RemainingTickets() */\n      gt\n      iszero\n        /* \"Lottery.sol\":2381:2499  require(... */\n      tag_202\n      jumpi\n      mload(0x40)\n      shl(0xe5, 0x461bcd)\n      dup2\n      mstore\n        /* \"#utility.yul\":5842:5844   */\n      0x20\n        /* \"Lottery.sol\":2381:2499  require(... */\n      0x04\n      dup3\n      add\n        /* \"#utility.yul\":5824:5845   */\n      mstore\n        /* \"#utility.yul\":5881:5883   */\n      0x1d\n        /* \"#utility.yul\":5861:5879   */\n      0x24\n      dup3\n      add\n        /* \"#utility.yul\":5854:5884   */\n      mstore\n        /* \"#utility.yul\":5920:5951   */\n      0x4e6f7420656e6f756768207469636b65747320617661696c61626c652e000000\n        /* \"#utility.yul\":5900:5918   */\n      0x44\n      dup3\n      add\n        /* \"#utility.yul\":5893:5952   */\n      mstore\n        /* \"#utility.yul\":5969:5987   */\n      0x64\n      add\n        /* \"Lottery.sol\":2381:2499  require(... */\n      tag_146\n        /* \"#utility.yul\":5640:5993   */\n      jump\n        /* \"Lottery.sol\":2381:2499  require(... */\n    tag_202:\n        /* \"Lottery.sol\":2517:2526  uint256 i */\n      0x00\n        /* \"Lottery.sol\":2512:2611  for (uint256 i = 0; i < numOfTicketsToBuy; i++) {... */\n    tag_205:\n        /* \"Lottery.sol\":2536:2553  numOfTicketsToBuy */\n      dup2\n        /* \"Lottery.sol\":2532:2533  i */\n      dup2\n        /* \"Lottery.sol\":2532:2553  i < numOfTicketsToBuy */\n      lt\n        /* \"Lottery.sol\":2512:2611  for (uint256 i = 0; i < numOfTicketsToBuy; i++) {... */\n      iszero\n      tag_206\n      jumpi\n        /* \"Lottery.sol\":2575:2582  tickets */\n      0x06\n        /* \"Lottery.sol\":2575:2599  tickets.push(msg.sender) */\n      dup1\n      sload\n      0x01\n      dup2\n      add\n      dup3\n      sstore\n      0x00\n      swap2\n      swap1\n      swap2\n      mstore\n      0xf652222313e28459528d920b65115c16c04f3efc82aaedc97be59f3f377c0d3f\n      add\n      dup1\n      sload\n      not(0xffffffffffffffffffffffffffffffffffffffff)\n      and\n        /* \"Lottery.sol\":2588:2598  msg.sender */\n      caller\n        /* \"Lottery.sol\":2575:2599  tickets.push(msg.sender) */\n      or\n      swap1\n      sstore\n        /* \"Lottery.sol\":2555:2558  i++ */\n      dup1\n      tag_209\n      dup2\n      tag_142\n      jump\t// in\n    tag_209:\n      swap2\n      pop\n      pop\n        /* \"Lottery.sol\":2512:2611  for (uint256 i = 0; i < numOfTicketsToBuy; i++) {... */\n      jump(tag_205)\n    tag_206:\n      pop\n        /* \"Lottery.sol\":2065:2618  {... */\n      pop\n        /* \"Lottery.sol\":2028:2618  function BuyTickets() public payable {... */\n      jump\t// out\n        /* \"Lottery.sol\":4911:5022  function RemainingTickets() public view returns (uint256) {... */\n    tag_91:\n        /* \"Lottery.sol\":5000:5007  tickets */\n      0x06\n        /* \"Lottery.sol\":5000:5014  tickets.length */\n      sload\n        /* \"Lottery.sol\":4960:4967  uint256 */\n      0x00\n      swap1\n        /* \"Lottery.sol\":4987:5014  maxTickets - tickets.length */\n      tag_211\n      swap1\n        /* \"Lottery.sol\":243:246  100 */\n      0x64\n        /* \"Lottery.sol\":4987:5014  maxTickets - tickets.length */\n      tag_159\n      jump\t// in\n    tag_211:\n        /* \"Lottery.sol\":4980:5014  return maxTickets - tickets.length */\n      swap1\n      pop\n        /* \"Lottery.sol\":4911:5022  function RemainingTickets() public view returns (uint256) {... */\n      swap1\n      jump\t// out\n        /* \"Lottery.sol\":4056:4398  function RefundAll() public {... */\n    tag_104:\n        /* \"Lottery.sol\":4122:4132  expiration */\n      sload(0x00)\n        /* \"Lottery.sol\":4103:4118  block.timestamp */\n      timestamp\n        /* \"Lottery.sol\":4103:4132  block.timestamp >= expiration */\n      lt\n      iszero\n        /* \"Lottery.sol\":4095:4164  require(block.timestamp >= expiration, \"the lottery not expired yet\") */\n      tag_214\n      jumpi\n      mload(0x40)\n      shl(0xe5, 0x461bcd)\n      dup2\n      mstore\n        /* \"#utility.yul\":6200:6202   */\n      0x20\n        /* \"Lottery.sol\":4095:4164  require(block.timestamp >= expiration, \"the lottery not expired yet\") */\n      0x04\n      dup3\n      add\n        /* \"#utility.yul\":6182:6203   */\n      mstore\n        /* \"#utility.yul\":6239:6241   */\n      0x1b\n        /* \"#utility.yul\":6219:6237   */\n      0x24\n      dup3\n      add\n        /* \"#utility.yul\":6212:6242   */\n      mstore\n        /* \"#utility.yul\":6278:6307   */\n      0x746865206c6f7474657279206e6f742065787069726564207965740000000000\n        /* \"#utility.yul\":6258:6276   */\n      0x44\n      dup3\n      add\n        /* \"#utility.yul\":6251:6308   */\n      mstore\n        /* \"#utility.yul\":6325:6343   */\n      0x64\n      add\n        /* \"Lottery.sol\":4095:4164  require(block.timestamp >= expiration, \"the lottery not expired yet\") */\n      tag_146\n        /* \"#utility.yul\":5998:6349   */\n      jump\n        /* \"Lottery.sol\":4095:4164  require(block.timestamp >= expiration, \"the lottery not expired yet\") */\n    tag_214:\n        /* \"Lottery.sol\":4182:4191  uint256 i */\n      0x00\n        /* \"Lottery.sol\":4177:4366  for (uint256 i = 0; i < tickets.length; i++) {... */\n    tag_217:\n        /* \"Lottery.sol\":4201:4208  tickets */\n      0x06\n        /* \"Lottery.sol\":4201:4215  tickets.length */\n      sload\n        /* \"Lottery.sol\":4197:4215  i < tickets.length */\n      dup2\n      lt\n        /* \"Lottery.sol\":4177:4366  for (uint256 i = 0; i < tickets.length; i++) {... */\n      iszero\n      tag_218\n      jumpi\n        /* \"Lottery.sol\":4237:4255  address payable to */\n      0x00\n        /* \"Lottery.sol\":4266:4273  tickets */\n      0x06\n        /* \"Lottery.sol\":4274:4275  i */\n      dup3\n        /* \"Lottery.sol\":4266:4276  tickets[i] */\n      dup2\n      sload\n      dup2\n      lt\n      tag_221\n      jumpi\n      tag_221\n      tag_138\n      jump\t// in\n    tag_221:\n      0x00\n      swap2\n      dup3\n      mstore\n      0x20\n      dup3\n      keccak256\n      add\n      sload\n        /* \"Lottery.sol\":4292:4299  tickets */\n      0x06\n        /* \"Lottery.sol\":4292:4302  tickets[i] */\n      dup1\n      sload\n      sub(shl(0xa0, 0x01), 0x01)\n        /* \"Lottery.sol\":4266:4276  tickets[i] */\n      swap1\n      swap3\n      and\n      swap4\n      pop\n        /* \"Lottery.sol\":4292:4299  tickets */\n      swap1\n        /* \"Lottery.sol\":4300:4301  i */\n      dup5\n      swap1\n        /* \"Lottery.sol\":4292:4302  tickets[i] */\n      dup2\n      lt\n      tag_224\n      jumpi\n      tag_224\n      tag_138\n      jump\t// in\n    tag_224:\n      0x00\n      swap2\n      dup3\n      mstore\n      0x20\n      dup3\n      keccak256\n      add\n        /* \"Lottery.sol\":4292:4315  tickets[i] = address(0) */\n      dup1\n      sload\n      not(0xffffffffffffffffffffffffffffffffffffffff)\n      and\n      sub(shl(0xa0, 0x01), 0x01)\n      swap4\n      dup5\n      and\n      or\n      swap1\n      sstore\n        /* \"Lottery.sol\":4330:4354  to.transfer(ticketPrice) */\n      mload(0x40)\n        /* \"Lottery.sol\":4330:4341  to.transfer */\n      swap2\n      dup4\n      and\n      swap2\n        /* \"Lottery.sol\":189:199  0.01 ether */\n      0x2386f26fc10000\n      swap1\n        /* \"Lottery.sol\":4292:4302  tickets[i] */\n      dup3\n        /* \"Lottery.sol\":4330:4354  to.transfer(ticketPrice) */\n      dup2\n        /* \"Lottery.sol\":4292:4302  tickets[i] */\n      dup2\n        /* \"Lottery.sol\":4330:4354  to.transfer(ticketPrice) */\n      dup2\n        /* \"Lottery.sol\":189:199  0.01 ether */\n      dup6\n        /* \"Lottery.sol\":4330:4341  to.transfer */\n      dup9\n        /* \"Lottery.sol\":4292:4302  tickets[i] */\n      dup4\n        /* \"Lottery.sol\":4330:4354  to.transfer(ticketPrice) */\n      call\n      swap4\n      pop\n      pop\n      pop\n      pop\n      iszero\n      dup1\n      iszero\n      tag_227\n      jumpi\n      returndatasize\n      0x00\n      dup1\n      returndatacopy\n      revert(0x00, returndatasize)\n    tag_227:\n      pop\n        /* \"Lottery.sol\":4222:4366  {... */\n      pop\n        /* \"Lottery.sol\":4217:4220  i++ */\n      dup1\n      dup1\n      tag_228\n      swap1\n      tag_142\n      jump\t// in\n    tag_228:\n      swap2\n      pop\n      pop\n        /* \"Lottery.sol\":4177:4366  for (uint256 i = 0; i < tickets.length; i++) {... */\n      jump(tag_217)\n    tag_218:\n      pop\n        /* \"Lottery.sol\":4376:4390  delete tickets */\n      tag_229\n        /* \"Lottery.sol\":4383:4390  tickets */\n      0x06\n      0x00\n        /* \"Lottery.sol\":4376:4390  delete tickets */\n      tag_175\n      jump\t// in\n    tag_229:\n        /* \"Lottery.sol\":4056:4398  function RefundAll() public {... */\n      jump\t// out\n        /* \"Lottery.sol\":4787:4903  function CurrentWinningReward() public view returns (uint256) {... */\n    tag_111:\n        /* \"Lottery.sol\":4867:4874  tickets */\n      0x06\n        /* \"Lottery.sol\":4867:4881  tickets.length */\n      sload\n        /* \"Lottery.sol\":4840:4847  uint256 */\n      0x00\n      swap1\n        /* \"Lottery.sol\":4867:4895  tickets.length * ticketPrice */\n      tag_211\n      swap1\n        /* \"Lottery.sol\":189:199  0.01 ether */\n      0x2386f26fc10000\n      swap1\n        /* \"Lottery.sol\":4867:4895  tickets.length * ticketPrice */\n      tag_169\n      jump\t// in\n        /* \"Lottery.sol\":3372:3579  function restartDraw() public isOperator {... */\n    tag_126:\n        /* \"Lottery.sol\":1122:1137  lotteryOperator */\n      and(sub(shl(0xa0, 0x01), 0x01), sload(0x01))\n        /* \"Lottery.sol\":1108:1118  msg.sender */\n      caller\n        /* \"Lottery.sol\":1108:1137  msg.sender == lotteryOperator */\n      eq\n        /* \"Lottery.sol\":1085:1200  require(... */\n      tag_234\n      jumpi\n      mload(0x40)\n      shl(0xe5, 0x461bcd)\n      dup2\n      mstore\n        /* \"#utility.yul\":2410:2412   */\n      0x20\n        /* \"Lottery.sol\":1085:1200  require(... */\n      0x04\n      dup3\n      add\n        /* \"#utility.yul\":2392:2413   */\n      mstore\n        /* \"#utility.yul\":2449:2451   */\n      0x22\n        /* \"#utility.yul\":2429:2447   */\n      0x24\n      dup3\n      add\n        /* \"#utility.yul\":2422:2452   */\n      mstore\n        /* \"#utility.yul\":2488:2522   */\n      0x43616c6c6572206973206e6f7420746865206c6f7474657279206f7065726174\n        /* \"#utility.yul\":2468:2486   */\n      0x44\n      dup3\n      add\n        /* \"#utility.yul\":2461:2523   */\n      mstore\n      shl(0xf1, 0x37b9)\n        /* \"#utility.yul\":2539:2557   */\n      0x64\n      dup3\n      add\n        /* \"#utility.yul\":2532:2564   */\n      mstore\n        /* \"#utility.yul\":2581:2600   */\n      0x84\n      add\n        /* \"Lottery.sol\":1085:1200  require(... */\n      tag_146\n        /* \"#utility.yul\":2208:2606   */\n      jump\n        /* \"Lottery.sol\":1085:1200  require(... */\n    tag_234:\n        /* \"Lottery.sol\":3432:3439  tickets */\n      0x06\n        /* \"Lottery.sol\":3432:3446  tickets.length */\n      sload\n        /* \"Lottery.sol\":3432:3451  tickets.length == 0 */\n      iszero\n        /* \"Lottery.sol\":3424:3494  require(tickets.length == 0, \"Cannot Restart Draw as Draw is in play\") */\n      tag_237\n      jumpi\n      mload(0x40)\n      shl(0xe5, 0x461bcd)\n      dup2\n      mstore\n        /* \"#utility.yul\":6556:6558   */\n      0x20\n        /* \"Lottery.sol\":3424:3494  require(tickets.length == 0, \"Cannot Restart Draw as Draw is in play\") */\n      0x04\n      dup3\n      add\n        /* \"#utility.yul\":6538:6559   */\n      mstore\n        /* \"#utility.yul\":6595:6597   */\n      0x26\n        /* \"#utility.yul\":6575:6593   */\n      0x24\n      dup3\n      add\n        /* \"#utility.yul\":6568:6598   */\n      mstore\n        /* \"#utility.yul\":6634:6668   */\n      0x43616e6e6f742052657374617274204472617720617320447261772069732069\n        /* \"#utility.yul\":6614:6632   */\n      0x44\n      dup3\n      add\n        /* \"#utility.yul\":6607:6669   */\n      mstore\n        /* \"#utility.yul\":6705:6713   */\n      0x6e20706c61790000000000000000000000000000000000000000000000000000\n        /* \"#utility.yul\":6685:6703   */\n      0x64\n      dup3\n      add\n        /* \"#utility.yul\":6678:6714   */\n      mstore\n        /* \"#utility.yul\":6731:6750   */\n      0x84\n      add\n        /* \"Lottery.sol\":3424:3494  require(tickets.length == 0, \"Cannot Restart Draw as Draw is in play\") */\n      tag_146\n        /* \"#utility.yul\":6354:6756   */\n      jump\n        /* \"Lottery.sol\":3424:3494  require(tickets.length == 0, \"Cannot Restart Draw as Draw is in play\") */\n    tag_237:\n        /* \"Lottery.sol\":3507:3521  delete tickets */\n      tag_240\n        /* \"Lottery.sol\":3514:3521  tickets */\n      0x06\n      0x00\n        /* \"Lottery.sol\":3507:3521  delete tickets */\n      tag_175\n      jump\t// in\n    tag_240:\n        /* \"Lottery.sol\":3545:3571  block.timestamp + duration */\n      tag_241\n        /* \"Lottery.sol\":404:414  30 minutes */\n      0x0708\n        /* \"Lottery.sol\":3545:3560  block.timestamp */\n      timestamp\n        /* \"Lottery.sol\":3545:3571  block.timestamp + duration */\n      tag_171\n      jump\t// in\n    tag_241:\n        /* \"Lottery.sol\":3532:3542  expiration */\n      0x00\n        /* \"Lottery.sol\":3532:3571  expiration = block.timestamp + duration */\n      sstore\n        /* \"Lottery.sol\":3372:3579  function restartDraw() public isOperator {... */\n      jump\t// out\n        /* \"@openzeppelin/contracts/utils/Strings.sol\":392:1095   */\n    tag_193:\n        /* \"@openzeppelin/contracts/utils/Strings.sol\":448:461   */\n      0x60\n        /* \"@openzeppelin/contracts/utils/Strings.sol\":665:670   */\n      dup2\n        /* \"@openzeppelin/contracts/utils/Strings.sol\":674:675   */\n      0x00\n        /* \"@openzeppelin/contracts/utils/Strings.sol\":665:675   */\n      sub\n        /* \"@openzeppelin/contracts/utils/Strings.sol\":661:712   */\n      tag_243\n      jumpi\n      pop\n      pop\n        /* \"@openzeppelin/contracts/utils/Strings.sol\":691:701   */\n      0x40\n      dup1\n      mload\n      dup1\n      dup3\n      add\n      swap1\n      swap2\n      mstore\n      0x01\n      dup2\n      mstore\n      shl(0xfc, 0x03)\n      0x20\n      dup3\n      add\n      mstore\n      swap1\n        /* \"@openzeppelin/contracts/utils/Strings.sol\":392:1095   */\n      jump\t// out\n        /* \"@openzeppelin/contracts/utils/Strings.sol\":661:712   */\n    tag_243:\n        /* \"@openzeppelin/contracts/utils/Strings.sol\":736:741   */\n      dup2\n        /* \"@openzeppelin/contracts/utils/Strings.sol\":721:733   */\n      0x00\n        /* \"@openzeppelin/contracts/utils/Strings.sol\":775:850   */\n    tag_244:\n        /* \"@openzeppelin/contracts/utils/Strings.sol\":782:791   */\n      dup2\n      iszero\n        /* \"@openzeppelin/contracts/utils/Strings.sol\":775:850   */\n      tag_245\n      jumpi\n        /* \"@openzeppelin/contracts/utils/Strings.sol\":807:815   */\n      dup1\n      tag_246\n      dup2\n      tag_142\n      jump\t// in\n    tag_246:\n      swap2\n      pop\n        /* \"@openzeppelin/contracts/utils/Strings.sol\":829:839   */\n      tag_247\n      swap1\n      pop\n        /* \"@openzeppelin/contracts/utils/Strings.sol\":837:839   */\n      0x0a\n        /* \"@openzeppelin/contracts/utils/Strings.sol\":829:839   */\n      dup4\n      tag_200\n      jump\t// in\n    tag_247:\n      swap2\n      pop\n        /* \"@openzeppelin/contracts/utils/Strings.sol\":775:850   */\n      jump(tag_244)\n    tag_245:\n        /* \"@openzeppelin/contracts/utils/Strings.sol\":859:878   */\n      0x00\n        /* \"@openzeppelin/contracts/utils/Strings.sol\":891:897   */\n      dup2\n        /* \"@openzeppelin/contracts/utils/Strings.sol\":881:898   */\n      0xffffffffffffffff\n      dup2\n      gt\n      iszero\n      tag_249\n      jumpi\n      tag_249\n      tag_250\n      jump\t// in\n    tag_249:\n      mload(0x40)\n      swap1\n      dup1\n      dup3\n      mstore\n      dup1\n      0x1f\n      add\n      not(0x1f)\n      and\n      0x20\n      add\n      dup3\n      add\n      0x40\n      mstore\n      dup1\n      iszero\n      tag_251\n      jumpi\n      0x20\n      dup3\n      add\n      dup2\n      dup1\n      calldatasize\n      dup4\n      calldatacopy\n      add\n      swap1\n      pop\n    tag_251:\n      pop\n        /* \"@openzeppelin/contracts/utils/Strings.sol\":859:898   */\n      swap1\n      pop\n        /* \"@openzeppelin/contracts/utils/Strings.sol\":908:1058   */\n    tag_252:\n        /* \"@openzeppelin/contracts/utils/Strings.sol\":915:925   */\n      dup5\n      iszero\n        /* \"@openzeppelin/contracts/utils/Strings.sol\":908:1058   */\n      tag_253\n      jumpi\n        /* \"@openzeppelin/contracts/utils/Strings.sol\":941:952   */\n      tag_254\n        /* \"@openzeppelin/contracts/utils/Strings.sol\":951:952   */\n      0x01\n        /* \"@openzeppelin/contracts/utils/Strings.sol\":941:952   */\n      dup4\n      tag_159\n      jump\t// in\n    tag_254:\n      swap2\n      pop\n        /* \"@openzeppelin/contracts/utils/Strings.sol\":1009:1019   */\n      tag_255\n        /* \"@openzeppelin/contracts/utils/Strings.sol\":1017:1019   */\n      0x0a\n        /* \"@openzeppelin/contracts/utils/Strings.sol\":1009:1014   */\n      dup7\n        /* \"@openzeppelin/contracts/utils/Strings.sol\":1009:1019   */\n      tag_163\n      jump\t// in\n    tag_255:\n        /* \"@openzeppelin/contracts/utils/Strings.sol\":996:1020   */\n      tag_256\n      swap1\n        /* \"@openzeppelin/contracts/utils/Strings.sol\":996:998   */\n      0x30\n        /* \"@openzeppelin/contracts/utils/Strings.sol\":996:1020   */\n      tag_171\n      jump\t// in\n    tag_256:\n        /* \"@openzeppelin/contracts/utils/Strings.sol\":983:1022   */\n      0xf8\n      shl\n        /* \"@openzeppelin/contracts/utils/Strings.sol\":966:972   */\n      dup2\n        /* \"@openzeppelin/contracts/utils/Strings.sol\":973:979   */\n      dup4\n        /* \"@openzeppelin/contracts/utils/Strings.sol\":966:980   */\n      dup2\n      mload\n      dup2\n      lt\n      tag_258\n      jumpi\n      tag_258\n      tag_138\n      jump\t// in\n    tag_258:\n      0x20\n      add\n      add\n        /* \"@openzeppelin/contracts/utils/Strings.sol\":966:1022   */\n      swap1\n      not(0xffffffffffffffffffffffffffffffffffffffffffffffffffffffffffffff)\n      and\n      swap1\n      dup2\n      0x00\n      byte\n      swap1\n      mstore8\n      pop\n        /* \"@openzeppelin/contracts/utils/Strings.sol\":1036:1047   */\n      tag_259\n        /* \"@openzeppelin/contracts/utils/Strings.sol\":1045:1047   */\n      0x0a\n        /* \"@openzeppelin/contracts/utils/Strings.sol\":1036:1047   */\n      dup7\n      tag_200\n      jump\t// in\n    tag_259:\n      swap5\n      pop\n        /* \"@openzeppelin/contracts/utils/Strings.sol\":908:1058   */\n      jump(tag_252)\n    tag_253:\n        /* \"@openzeppelin/contracts/utils/Strings.sol\":1081:1087   */\n      swap5\n        /* \"@openzeppelin/contracts/utils/Strings.sol\":392:1095   */\n      swap4\n      pop\n      pop\n      pop\n      pop\n      jump\t// out\n    tag_175:\n      pop\n      dup1\n      sload\n      0x00\n      dup3\n      sstore\n      swap1\n      0x00\n      mstore\n      keccak256(0x00, 0x20)\n      swap1\n      dup2\n      add\n      swap1\n      tag_261\n      swap2\n      swap1\n      tag_262\n      jump\t// in\n    tag_261:\n      pop\n      jump\t// out\n    tag_262:\n    tag_263:\n      dup1\n      dup3\n      gt\n      iszero\n      tag_264\n      jumpi\n      0x00\n      dup2\n      sstore\n      0x01\n      add\n      jump(tag_263)\n    tag_264:\n      pop\n      swap1\n      jump\t// out\n        /* \"#utility.yul\":196:877   */\n    tag_68:\n        /* \"#utility.yul\":367:369   */\n      0x20\n        /* \"#utility.yul\":419:440   */\n      dup1\n      dup3\n      mstore\n        /* \"#utility.yul\":489:502   */\n      dup3\n      mload\n        /* \"#utility.yul\":392:410   */\n      dup3\n      dup3\n      add\n        /* \"#utility.yul\":511:533   */\n      dup2\n      swap1\n      mstore\n        /* \"#utility.yul\":338:342   */\n      0x00\n      swap2\n        /* \"#utility.yul\":367:369   */\n      swap1\n        /* \"#utility.yul\":590:605   */\n      dup5\n      dup3\n      add\n      swap1\n        /* \"#utility.yul\":564:566   */\n      0x40\n        /* \"#utility.yul\":549:567   */\n      dup6\n      add\n      swap1\n        /* \"#utility.yul\":338:342   */\n      dup5\n        /* \"#utility.yul\":633:851   */\n    tag_271:\n        /* \"#utility.yul\":647:653   */\n      dup2\n        /* \"#utility.yul\":644:645   */\n      dup2\n        /* \"#utility.yul\":641:654   */\n      lt\n        /* \"#utility.yul\":633:851   */\n      iszero\n      tag_273\n      jumpi\n        /* \"#utility.yul\":712:725   */\n      dup4\n      mload\n      sub(shl(0xa0, 0x01), 0x01)\n        /* \"#utility.yul\":708:770   */\n      and\n        /* \"#utility.yul\":696:771   */\n      dup4\n      mstore\n        /* \"#utility.yul\":826:841   */\n      swap3\n      dup5\n      add\n      swap3\n        /* \"#utility.yul\":791:803   */\n      swap2\n      dup5\n      add\n      swap2\n        /* \"#utility.yul\":669:670   */\n      0x01\n        /* \"#utility.yul\":662:671   */\n      add\n        /* \"#utility.yul\":633:851   */\n      jump(tag_271)\n    tag_273:\n      pop\n        /* \"#utility.yul\":868:871   */\n      swap1\n      swap7\n        /* \"#utility.yul\":196:877   */\n      swap6\n      pop\n      pop\n      pop\n      pop\n      pop\n      pop\n      jump\t// out\n        /* \"#utility.yul\":882:1062   */\n    tag_72:\n        /* \"#utility.yul\":941:947   */\n      0x00\n        /* \"#utility.yul\":994:996   */\n      0x20\n        /* \"#utility.yul\":982:991   */\n      dup3\n        /* \"#utility.yul\":973:980   */\n      dup5\n        /* \"#utility.yul\":969:992   */\n      sub\n        /* \"#utility.yul\":965:997   */\n      slt\n        /* \"#utility.yul\":962:1014   */\n      iszero\n      tag_275\n      jumpi\n        /* \"#utility.yul\":1010:1011   */\n      0x00\n        /* \"#utility.yul\":1007:1008   */\n      dup1\n        /* \"#utility.yul\":1000:1012   */\n      revert\n        /* \"#utility.yul\":962:1014   */\n    tag_275:\n      pop\n        /* \"#utility.yul\":1033:1056   */\n      calldataload\n      swap2\n        /* \"#utility.yul\":882:1062   */\n      swap1\n      pop\n      jump\t// out\n        /* \"#utility.yul\":1490:1799   */\n    tag_116:\n        /* \"#utility.yul\":1549:1555   */\n      0x00\n        /* \"#utility.yul\":1602:1604   */\n      0x20\n        /* \"#utility.yul\":1590:1599   */\n      dup3\n        /* \"#utility.yul\":1581:1588   */\n      dup5\n        /* \"#utility.yul\":1577:1600   */\n      sub\n        /* \"#utility.yul\":1573:1605   */\n      slt\n        /* \"#utility.yul\":1570:1622   */\n      iszero\n      tag_279\n      jumpi\n        /* \"#utility.yul\":1618:1619   */\n      0x00\n        /* \"#utility.yul\":1615:1616   */\n      dup1\n        /* \"#utility.yul\":1608:1620   */\n      revert\n        /* \"#utility.yul\":1570:1622   */\n    tag_279:\n        /* \"#utility.yul\":1657:1666   */\n      dup2\n        /* \"#utility.yul\":1644:1667   */\n      calldataload\n      sub(shl(0xa0, 0x01), 0x01)\n        /* \"#utility.yul\":1700:1705   */\n      dup2\n        /* \"#utility.yul\":1696:1750   */\n      and\n        /* \"#utility.yul\":1689:1694   */\n      dup2\n        /* \"#utility.yul\":1686:1751   */\n      eq\n        /* \"#utility.yul\":1676:1769   */\n      tag_280\n      jumpi\n        /* \"#utility.yul\":1765:1766   */\n      0x00\n        /* \"#utility.yul\":1762:1763   */\n      dup1\n        /* \"#utility.yul\":1755:1767   */\n      revert\n        /* \"#utility.yul\":1676:1769   */\n    tag_280:\n        /* \"#utility.yul\":1788:1793   */\n      swap4\n        /* \"#utility.yul\":1490:1799   */\n      swap3\n      pop\n      pop\n      pop\n      jump\t// out\n        /* \"#utility.yul\":1804:1931   */\n    tag_138:\n        /* \"#utility.yul\":1865:1875   */\n      0x4e487b71\n        /* \"#utility.yul\":1860:1863   */\n      0xe0\n        /* \"#utility.yul\":1856:1876   */\n      shl\n        /* \"#utility.yul\":1853:1854   */\n      0x00\n        /* \"#utility.yul\":1846:1877   */\n      mstore\n        /* \"#utility.yul\":1896:1900   */\n      0x32\n        /* \"#utility.yul\":1893:1894   */\n      0x04\n        /* \"#utility.yul\":1886:1901   */\n      mstore\n        /* \"#utility.yul\":1920:1924   */\n      0x24\n        /* \"#utility.yul\":1917:1918   */\n      0x00\n        /* \"#utility.yul\":1910:1925   */\n      revert\n        /* \"#utility.yul\":1936:2063   */\n    tag_265:\n        /* \"#utility.yul\":1997:2007   */\n      0x4e487b71\n        /* \"#utility.yul\":1992:1995   */\n      0xe0\n        /* \"#utility.yul\":1988:2008   */\n      shl\n        /* \"#utility.yul\":1985:1986   */\n      0x00\n        /* \"#utility.yul\":1978:2009   */\n      mstore\n        /* \"#utility.yul\":2028:2032   */\n      0x11\n        /* \"#utility.yul\":2025:2026   */\n      0x04\n        /* \"#utility.yul\":2018:2033   */\n      mstore\n        /* \"#utility.yul\":2052:2056   */\n      0x24\n        /* \"#utility.yul\":2049:2050   */\n      0x00\n        /* \"#utility.yul\":2042:2057   */\n      revert\n        /* \"#utility.yul\":2068:2203   */\n    tag_142:\n        /* \"#utility.yul\":2107:2110   */\n      0x00\n        /* \"#utility.yul\":2128:2145   */\n      0x01\n      dup3\n      add\n        /* \"#utility.yul\":2125:2168   */\n      tag_285\n      jumpi\n        /* \"#utility.yul\":2148:2166   */\n      tag_285\n      tag_265\n      jump\t// in\n    tag_285:\n      pop\n        /* \"#utility.yul\":2195:2196   */\n      0x01\n        /* \"#utility.yul\":2184:2197   */\n      add\n      swap1\n        /* \"#utility.yul\":2068:2203   */\n      jump\t// out\n        /* \"#utility.yul\":2965:3093   */\n    tag_159:\n        /* \"#utility.yul\":3032:3041   */\n      dup2\n      dup2\n      sub\n        /* \"#utility.yul\":3053:3064   */\n      dup2\n      dup2\n      gt\n        /* \"#utility.yul\":3050:3087   */\n      iszero\n      tag_290\n      jumpi\n        /* \"#utility.yul\":3067:3085   */\n      tag_290\n      tag_265\n      jump\t// in\n    tag_290:\n        /* \"#utility.yul\":2965:3093   */\n      swap3\n      swap2\n      pop\n      pop\n      jump\t// out\n        /* \"#utility.yul\":3350:3477   */\n    tag_266:\n        /* \"#utility.yul\":3411:3421   */\n      0x4e487b71\n        /* \"#utility.yul\":3406:3409   */\n      0xe0\n        /* \"#utility.yul\":3402:3422   */\n      shl\n        /* \"#utility.yul\":3399:3400   */\n      0x00\n        /* \"#utility.yul\":3392:3423   */\n      mstore\n        /* \"#utility.yul\":3442:3446   */\n      0x12\n        /* \"#utility.yul\":3439:3440   */\n      0x04\n        /* \"#utility.yul\":3432:3447   */\n      mstore\n        /* \"#utility.yul\":3466:3470   */\n      0x24\n        /* \"#utility.yul\":3463:3464   */\n      0x00\n        /* \"#utility.yul\":3456:3471   */\n      revert\n        /* \"#utility.yul\":3482:3594   */\n    tag_163:\n        /* \"#utility.yul\":3514:3515   */\n      0x00\n        /* \"#utility.yul\":3540:3541   */\n      dup3\n        /* \"#utility.yul\":3530:3565   */\n      tag_295\n      jumpi\n        /* \"#utility.yul\":3545:3563   */\n      tag_295\n      tag_266\n      jump\t// in\n    tag_295:\n      pop\n        /* \"#utility.yul\":3579:3588   */\n      mod\n      swap1\n        /* \"#utility.yul\":3482:3594   */\n      jump\t// out\n        /* \"#utility.yul\":3599:3767   */\n    tag_169:\n        /* \"#utility.yul\":3672:3681   */\n      dup1\n      dup3\n      mul\n        /* \"#utility.yul\":3703:3712   */\n      dup2\n      iszero\n        /* \"#utility.yul\":3720:3735   */\n      dup3\n      dup3\n      div\n        /* \"#utility.yul\":3714:3736   */\n      dup5\n      eq\n        /* \"#utility.yul\":3700:3737   */\n      or\n        /* \"#utility.yul\":3690:3761   */\n      tag_290\n      jumpi\n        /* \"#utility.yul\":3741:3759   */\n      tag_290\n      tag_265\n      jump\t// in\n        /* \"#utility.yul\":3772:3897   */\n    tag_171:\n        /* \"#utility.yul\":3837:3846   */\n      dup1\n      dup3\n      add\n        /* \"#utility.yul\":3858:3868   */\n      dup1\n      dup3\n      gt\n        /* \"#utility.yul\":3855:3891   */\n      iszero\n      tag_290\n      jumpi\n        /* \"#utility.yul\":3871:3889   */\n      tag_290\n      tag_265\n      jump\t// in\n        /* \"#utility.yul\":4253:4503   */\n    tag_267:\n        /* \"#utility.yul\":4338:4339   */\n      0x00\n        /* \"#utility.yul\":4348:4461   */\n    tag_304:\n        /* \"#utility.yul\":4362:4368   */\n      dup4\n        /* \"#utility.yul\":4359:4360   */\n      dup2\n        /* \"#utility.yul\":4356:4369   */\n      lt\n        /* \"#utility.yul\":4348:4461   */\n      iszero\n      tag_306\n      jumpi\n        /* \"#utility.yul\":4438:4449   */\n      dup2\n      dup2\n      add\n        /* \"#utility.yul\":4432:4450   */\n      mload\n        /* \"#utility.yul\":4419:4430   */\n      dup4\n      dup3\n      add\n        /* \"#utility.yul\":4412:4451   */\n      mstore\n        /* \"#utility.yul\":4384:4386   */\n      0x20\n        /* \"#utility.yul\":4377:4387   */\n      add\n        /* \"#utility.yul\":4348:4461   */\n      jump(tag_304)\n    tag_306:\n      pop\n      pop\n        /* \"#utility.yul\":4495:4496   */\n      0x00\n        /* \"#utility.yul\":4477:4493   */\n      swap2\n      add\n        /* \"#utility.yul\":4470:4497   */\n      mstore\n        /* \"#utility.yul\":4253:4503   */\n      jump\t// out\n        /* \"#utility.yul\":4508:5109   */\n    tag_195:\n        /* \"#utility.yul\":4850:4882   */\n      0x7468652076616c7565206d757374206265206d756c7469706c65206f66200000\n        /* \"#utility.yul\":4845:4848   */\n      dup2\n        /* \"#utility.yul\":4838:4883   */\n      mstore\n        /* \"#utility.yul\":4820:4823   */\n      0x00\n        /* \"#utility.yul\":4912:4918   */\n      dup3\n        /* \"#utility.yul\":4906:4919   */\n      mload\n        /* \"#utility.yul\":4928:5003   */\n      tag_308\n        /* \"#utility.yul\":4996:5002   */\n      dup2\n        /* \"#utility.yul\":4991:4993   */\n      0x1e\n        /* \"#utility.yul\":4986:4989   */\n      dup6\n        /* \"#utility.yul\":4982:4994   */\n      add\n        /* \"#utility.yul\":4975:4979   */\n      0x20\n        /* \"#utility.yul\":4967:4973   */\n      dup8\n        /* \"#utility.yul\":4963:4980   */\n      add\n        /* \"#utility.yul\":4928:5003   */\n      tag_267\n      jump\t// in\n    tag_308:\n        /* \"#utility.yul\":5067:5075   */\n      0x2045746865720000000000000000000000000000000000000000000000000000\n        /* \"#utility.yul\":5062:5064   */\n      0x1e\n        /* \"#utility.yul\":5022:5038   */\n      swap4\n      swap1\n      swap2\n      add\n        /* \"#utility.yul\":5054:5065   */\n      swap3\n      dup4\n      add\n        /* \"#utility.yul\":5047:5076   */\n      mstore\n      pop\n        /* \"#utility.yul\":5100:5102   */\n      0x24\n        /* \"#utility.yul\":5092:5103   */\n      add\n      swap2\n        /* \"#utility.yul\":4508:5109   */\n      swap1\n      pop\n      jump\t// out\n        /* \"#utility.yul\":5114:5510   */\n    tag_198:\n        /* \"#utility.yul\":5263:5265   */\n      0x20\n        /* \"#utility.yul\":5252:5261   */\n      dup2\n        /* \"#utility.yul\":5245:5266   */\n      mstore\n        /* \"#utility.yul\":5226:5230   */\n      0x00\n        /* \"#utility.yul\":5295:5301   */\n      dup3\n        /* \"#utility.yul\":5289:5302   */\n      mload\n        /* \"#utility.yul\":5338:5344   */\n      dup1\n        /* \"#utility.yul\":5333:5335   */\n      0x20\n        /* \"#utility.yul\":5322:5331   */\n      dup5\n        /* \"#utility.yul\":5318:5336   */\n      add\n        /* \"#utility.yul\":5311:5345   */\n      mstore\n        /* \"#utility.yul\":5354:5433   */\n      tag_310\n        /* \"#utility.yul\":5426:5432   */\n      dup2\n        /* \"#utility.yul\":5421:5423   */\n      0x40\n        /* \"#utility.yul\":5410:5419   */\n      dup6\n        /* \"#utility.yul\":5406:5424   */\n      add\n        /* \"#utility.yul\":5401:5403   */\n      0x20\n        /* \"#utility.yul\":5393:5399   */\n      dup8\n        /* \"#utility.yul\":5389:5404   */\n      add\n        /* \"#utility.yul\":5354:5433   */\n      tag_267\n      jump\t// in\n    tag_310:\n        /* \"#utility.yul\":5494:5496   */\n      0x1f\n        /* \"#utility.yul\":5473:5488   */\n      add\n      not(0x1f)\n        /* \"#utility.yul\":5469:5498   */\n      and\n        /* \"#utility.yul\":5454:5499   */\n      swap2\n      swap1\n      swap2\n      add\n        /* \"#utility.yul\":5501:5503   */\n      0x40\n        /* \"#utility.yul\":5450:5504   */\n      add\n      swap3\n        /* \"#utility.yul\":5114:5510   */\n      swap2\n      pop\n      pop\n      jump\t// out\n        /* \"#utility.yul\":5515:5635   */\n    tag_200:\n        /* \"#utility.yul\":5555:5556   */\n      0x00\n        /* \"#utility.yul\":5581:5582   */\n      dup3\n        /* \"#utility.yul\":5571:5606   */\n      tag_313\n      jumpi\n        /* \"#utility.yul\":5586:5604   */\n      tag_313\n      tag_266\n      jump\t// in\n    tag_313:\n      pop\n        /* \"#utility.yul\":5620:5629   */\n      div\n      swap1\n        /* \"#utility.yul\":5515:5635   */\n      jump\t// out\n        /* \"#utility.yul\":6761:6888   */\n    tag_250:\n        /* \"#utility.yul\":6822:6832   */\n      0x4e487b71\n        /* \"#utility.yul\":6817:6820   */\n      0xe0\n        /* \"#utility.yul\":6813:6833   */\n      shl\n        /* \"#utility.yul\":6810:6811   */\n      0x00\n        /* \"#utility.yul\":6803:6834   */\n      mstore\n        /* \"#utility.yul\":6853:6857   */\n      0x41\n        /* \"#utility.yul\":6850:6851   */\n      0x04\n        /* \"#utility.yul\":6843:6858   */\n      mstore\n        /* \"#utility.yul\":6877:6881   */\n      0x24\n        /* \"#utility.yul\":6874:6875   */\n      0x00\n        /* \"#utility.yul\":6867:6882   */\n      revert\n\n    auxdata: 0xa2646970667358221220e15362941c46c62b712adb1bda33a6b32617691a07eb2354b045b5593feea51064736f6c63430008110033\n}\n",
    "bytecode": {
      "linkReferences": {},
      "object": "6080604052600060025534801561001557600080fd5b50600180546001600160a01b031916331790556100346107084261003c565b600055610063565b8082018082111561005d57634e487b7160e01b600052601160045260246000fd5b92915050565b610fe4806100726000396000f3fe60806040526004361061018b5760003560e01c806371827b7b116100d6578063ba946d791161007f578063ea3a149911610059578063ea3a1499146103e4578063f261326914610411578063fe1881841461042657600080fd5b8063ba946d7914610383578063c6944fa014610399578063dd64e534146103ae57600080fd5b806396c85ef3116100b057806396c85ef31461032a5780639b89470314610359578063a88f46721461036e57600080fd5b806371827b7b146102f857806391d8b14e1461030d57806393a563b51461031557600080fd5b80634665096d1161013857806350b447121161011257806350b44712146102855780635a58acdd146102bd5780636032a4f9146102dd57600080fd5b80634665096d146102385780634788af7c1461024e5780634ed026221461026357600080fd5b80631057886b116101695780631057886b146101f15780631209b1f61461020657806335580df21461022157600080fd5b806306f7f3bf146101905780630789c607146101b95780630fb5a6b4146101db575b600080fd5b34801561019c57600080fd5b506101a660045481565b6040519081526020015b60405180910390f35b3480156101c557600080fd5b50336000908152600560205260409020546101a6565b3480156101e757600080fd5b506101a661070881565b3480156101fd57600080fd5b506101a6610446565b34801561021257600080fd5b506101a6662386f26fc1000081565b34801561022d57600080fd5b506102366104b2565b005b34801561024457600080fd5b506101a660005481565b34801561025a57600080fd5b50610236610559565b34801561026f57600080fd5b5061027861076d565b6040516101b09190610d79565b34801561029157600080fd5b506102a56102a0366004610dc6565b6107cf565b6040516001600160a01b0390911681526020016101b0565b3480156102c957600080fd5b506001546102a5906001600160a01b031681565b3480156102e957600080fd5b506101a666038d7ea4c6800081565b34801561030457600080fd5b506102366107f9565b610236610898565b34801561032157600080fd5b506101a66109d4565b34801561033657600080fd5b5033600090815260056020526040902054151560405190151581526020016101b0565b34801561036557600080fd5b506101a6606481565b34801561037a57600080fd5b506102366109ea565b34801561038f57600080fd5b506101a660025481565b3480156103a557600080fd5b506101a6610b0e565b3480156103ba57600080fd5b506101a66103c9366004610ddf565b6001600160a01b031660009081526005602052604090205490565b3480156103f057600080fd5b506101a66103ff366004610ddf565b60056020526000908152604090205481565b34801561041d57600080fd5b50610236610b26565b34801561043257600080fd5b506003546102a5906001600160a01b031681565b600080805b6006548110156104ac57336001600160a01b03166006828154811061047257610472610e0f565b6000918252602090912001546001600160a01b03160361049a578161049681610e3b565b9250505b806104a481610e3b565b91505061044b565b50919050565b6001546001600160a01b0316331461051c5760405162461bcd60e51b815260206004820152602260248201527f43616c6c6572206973206e6f7420746865206c6f7474657279206f706572617460448201526137b960f11b60648201526084015b60405180910390fd5b600280546000918290556040513392839183156108fc0291849190818181858888f19350505050158015610554573d6000803e3d6000fd5b505050565b6001546001600160a01b031633146105be5760405162461bcd60e51b815260206004820152602260248201527f43616c6c6572206973206e6f7420746865206c6f7474657279206f706572617460448201526137b960f11b6064820152608401610513565b60065461060d5760405162461bcd60e51b815260206004820152601960248201527f4e6f207469636b657473207765726520707572636861736564000000000000006044820152606401610513565b60065460009061061d9043610e54565b604080514260208201529140908201819052915060009060600160408051601f1981840301815291905280516020909101206006549091506000906106629083610e83565b905060006006828154811061067957610679610e0f565b6000918252602090912001546003805473ffffffffffffffffffffffffffffffffffffffff19166001600160a01b03909216918217905590506106ca66038d7ea4c68000662386f26fc10000610e54565b6006546106d79190610e97565b6001600160a01b038216600090815260056020526040812080549091906106ff908490610eae565b90915550506001600160a01b0381166000908152600560205260409020546004556006546107359066038d7ea4c6800090610e97565b600260008282546107469190610eae565b90915550610758905060066000610d3f565b61076461070842610eae565b60005550505050565b606060068054806020026020016040519081016040528092919081815260200182805480156107c557602002820191906000526020600020905b81546001600160a01b031681526001909101906020018083116107a7575b5050505050905090565b600681815481106107df57600080fd5b6000918252602090912001546001600160a01b0316905081565b336000908152600560205260409020546108555760405162461bcd60e51b815260206004820152601660248201527f43616c6c6572206973206e6f7420612077696e6e6572000000000000000000006044820152606401610513565b3360008181526005602052604080822080549083905590519091839183156108fc0291849190818181858888f19350505050158015610554573d6000803e3d6000fd5b6108a9662386f26fc1000034610e83565b156108ba662386f26fc10000610c1e565b6040516020016108ca9190610ee5565b604051602081830303815290604052906108f75760405162461bcd60e51b81526004016105139190610f51565b50600061090b662386f26fc1000034610f84565b90506109156109d4565b8111156109645760405162461bcd60e51b815260206004820152601d60248201527f4e6f7420656e6f756768207469636b65747320617661696c61626c652e0000006044820152606401610513565b60005b818110156109d057600680546001810182556000919091527ff652222313e28459528d920b65115c16c04f3efc82aaedc97be59f3f377c0d3f01805473ffffffffffffffffffffffffffffffffffffffff191633179055806109c881610e3b565b915050610967565b5050565b6006546000906109e5906064610e54565b905090565b600054421015610a3c5760405162461bcd60e51b815260206004820152601b60248201527f746865206c6f7474657279206e6f7420657870697265642079657400000000006044820152606401610513565b60005b600654811015610aff57600060068281548110610a5e57610a5e610e0f565b6000918252602082200154600680546001600160a01b0390921693509084908110610a8b57610a8b610e0f565b60009182526020822001805473ffffffffffffffffffffffffffffffffffffffff19166001600160a01b0393841617905560405191831691662386f26fc100009082818181858883f19350505050158015610aea573d6000803e3d6000fd5b50508080610af790610e3b565b915050610a3f565b50610b0c60066000610d3f565b565b6006546000906109e590662386f26fc1000090610e97565b6001546001600160a01b03163314610b8b5760405162461bcd60e51b815260206004820152602260248201527f43616c6c6572206973206e6f7420746865206c6f7474657279206f706572617460448201526137b960f11b6064820152608401610513565b60065415610c015760405162461bcd60e51b815260206004820152602660248201527f43616e6e6f74205265737461727420447261772061732044726177206973206960448201527f6e20706c617900000000000000000000000000000000000000000000000000006064820152608401610513565b610c0d60066000610d3f565b610c1961070842610eae565b600055565b606081600003610c455750506040805180820190915260018152600360fc1b602082015290565b8160005b8115610c6f5780610c5981610e3b565b9150610c689050600a83610f84565b9150610c49565b60008167ffffffffffffffff811115610c8a57610c8a610f98565b6040519080825280601f01601f191660200182016040528015610cb4576020820181803683370190505b5090505b8415610d3757610cc9600183610e54565b9150610cd6600a86610e83565b610ce1906030610eae565b60f81b818381518110610cf657610cf6610e0f565b60200101907effffffffffffffffffffffffffffffffffffffffffffffffffffffffffffff1916908160001a905350610d30600a86610f84565b9450610cb8565b949350505050565b5080546000825590600052602060002090810190610d5d9190610d60565b50565b5b80821115610d755760008155600101610d61565b5090565b6020808252825182820181905260009190848201906040850190845b81811015610dba5783516001600160a01b031683529284019291840191600101610d95565b50909695505050505050565b600060208284031215610dd857600080fd5b5035919050565b600060208284031215610df157600080fd5b81356001600160a01b0381168114610e0857600080fd5b9392505050565b634e487b7160e01b600052603260045260246000fd5b634e487b7160e01b600052601160045260246000fd5b600060018201610e4d57610e4d610e25565b5060010190565b81810381811115610e6757610e67610e25565b92915050565b634e487b7160e01b600052601260045260246000fd5b600082610e9257610e92610e6d565b500690565b8082028115828204841417610e6757610e67610e25565b80820180821115610e6757610e67610e25565b60005b83811015610edc578181015183820152602001610ec4565b50506000910152565b7f7468652076616c7565206d757374206265206d756c7469706c65206f66200000815260008251610f1d81601e850160208701610ec1565b7f2045746865720000000000000000000000000000000000000000000000000000601e939091019283015250602401919050565b6020815260008251806020840152610f70816040850160208701610ec1565b601f01601f19169190910160400192915050565b600082610f9357610f93610e6d565b500490565b634e487b7160e01b600052604160045260246000fdfea2646970667358221220e15362941c46c62b712adb1bda33a6b32617691a07eb2354b045b5593feea51064736f6c63430008110033",
      "opcodes": "PUSH1 0x80 PUSH1 0x40 MSTORE PUSH1 0x0 PUSH1 0x2 SSTORE CALLVALUE DUP1 ISZERO PUSH2 0x15 JUMPI PUSH1 0x0 DUP1 REVERT JUMPDEST POP PUSH1 0x1 DUP1 SLOAD PUSH1 0x1 PUSH1 0x1 PUSH1 0xA0 SHL SUB NOT AND CALLER OR SWAP1 SSTORE PUSH2 0x34 PUSH2 0x708 TIMESTAMP PUSH2 0x3C JUMP JUMPDEST PUSH1 0x0 SSTORE PUSH2 0x63 JUMP JUMPDEST DUP1 DUP3 ADD DUP1 DUP3 GT ISZERO PUSH2 0x5D JUMPI PUSH4 0x4E487B71 PUSH1 0xE0 SHL PUSH1 0x0 MSTORE PUSH1 0x11 PUSH1 0x4 MSTORE PUSH1 0x24 PUSH1 0x0 REVERT JUMPDEST SWAP3 SWAP2 POP POP JUMP JUMPDEST PUSH2 0xFE4 DUP1 PUSH2 0x72 PUSH1 0x0 CODECOPY PUSH1 0x0 RETURN INVALID PUSH1 0x80 PUSH1 0x40 MSTORE PUSH1 0x4 CALLDATASIZE LT PUSH2 0x18B JUMPI PUSH1 0x0 CALLDATALOAD PUSH1 0xE0 SHR DUP1 PUSH4 0x71827B7B GT PUSH2 0xD6 JUMPI DUP1 PUSH4 0xBA946D79 GT PUSH2 0x7F JUMPI DUP1 PUSH4 0xEA3A1499 GT PUSH2 0x59 JUMPI DUP1 PUSH4 0xEA3A1499 EQ PUSH2 0x3E4 JUMPI DUP1 PUSH4 0xF2613269 EQ PUSH2 0x411 JUMPI DUP1 PUSH4 0xFE188184 EQ PUSH2 0x426 JUMPI PUSH1 0x0 DUP1 REVERT JUMPDEST DUP1 PUSH4 0xBA946D79 EQ PUSH2 0x383 JUMPI DUP1 PUSH4 0xC6944FA0 EQ PUSH2 0x399 JUMPI DUP1 PUSH4 0xDD64E534 EQ PUSH2 0x3AE JUMPI PUSH1 0x0 DUP1 REVERT JUMPDEST DUP1 PUSH4 0x96C85EF3 GT PUSH2 0xB0 JUMPI DUP1 PUSH4 0x96C85EF3 EQ PUSH2 0x32A JUMPI DUP1 PUSH4 0x9B894703 EQ PUSH2 0x359 JUMPI DUP1 PUSH4 0xA88F4672 EQ PUSH2 0x36E JUMPI PUSH1 0x0 DUP1 REVERT JUMPDEST DUP1 PUSH4 0x71827B7B EQ PUSH2 0x2F8 JUMPI DUP1 PUSH4 0x91D8B14E EQ PUSH2 0x30D JUMPI DUP1 PUSH4 0x93A563B5 EQ PUSH2 0x315 JUMPI PUSH1 0x0 DUP1 REVERT JUMPDEST DUP1 PUSH4 0x4665096D GT PUSH2 0x138 JUMPI DUP1 PUSH4 0x50B44712 GT PUSH2 0x112 JUMPI DUP1 PUSH4 0x50B44712 EQ PUSH2 0x285 JUMPI DUP1 PUSH4 0x5A58ACDD EQ PUSH2 0x2BD JUMPI DUP1 PUSH4 0x6032A4F9 EQ PUSH2 0x2DD JUMPI PUSH1 0x0 DUP1 REVERT JUMPDEST DUP1 PUSH4 0x4665096D EQ PUSH2 0x238 JUMPI DUP1 PUSH4 0x4788AF7C EQ PUSH2 0x24E JUMPI DUP1 PUSH4 0x4ED02622 EQ PUSH2 0x263 JUMPI PUSH1 0x0 DUP1 REVERT JUMPDEST DUP1 PUSH4 0x1057886B GT PUSH2 0x169 JUMPI DUP1 PUSH4 0x1057886B EQ PUSH2 0x1F1 JUMPI DUP1 PUSH4 0x1209B1F6 EQ PUSH2 0x206 JUMPI DUP1 PUSH4 0x35580DF2 EQ PUSH2 0x221 JUMPI PUSH1 0x0 DUP1 REVERT JUMPDEST DUP1 PUSH4 0x6F7F3BF EQ PUSH2 0x190 JUMPI DUP1 PUSH4 0x789C607 EQ PUSH2 0x1B9 JUMPI DUP1 PUSH4 0xFB5A6B4 EQ PUSH2 0x1DB JUMPI JUMPDEST PUSH1 0x0 DUP1 REVERT JUMPDEST CALLVALUE DUP1 ISZERO PUSH2 0x19C JUMPI PUSH1 0x0 DUP1 REVERT JUMPDEST POP PUSH2 0x1A6 PUSH1 0x4 SLOAD DUP2 JUMP JUMPDEST PUSH1 0x40 MLOAD SWAP1 DUP2 MSTORE PUSH1 0x20 ADD JUMPDEST PUSH1 0x40 MLOAD DUP1 SWAP2 SUB SWAP1 RETURN JUMPDEST CALLVALUE DUP1 ISZERO PUSH2 0x1C5 JUMPI PUSH1 0x0 DUP1 REVERT JUMPDEST POP CALLER PUSH1 0x0 SWAP1 DUP2 MSTORE PUSH1 0x5 PUSH1 0x20 MSTORE PUSH1 0x40 SWAP1 KECCAK256 SLOAD PUSH2 0x1A6 JUMP JUMPDEST CALLVALUE DUP1 ISZERO PUSH2 0x1E7 JUMPI PUSH1 0x0 DUP1 REVERT JUMPDEST POP PUSH2 0x1A6 PUSH2 0x708 DUP2 JUMP JUMPDEST CALLVALUE DUP1 ISZERO PUSH2 0x1FD JUMPI PUSH1 0x0 DUP1 REVERT JUMPDEST POP PUSH2 0x1A6 PUSH2 0x446 JUMP JUMPDEST CALLVALUE DUP1 ISZERO PUSH2 0x212 JUMPI PUSH1 0x0 DUP1 REVERT JUMPDEST POP PUSH2 0x1A6 PUSH7 0x2386F26FC10000 DUP2 JUMP JUMPDEST CALLVALUE DUP1 ISZERO PUSH2 0x22D JUMPI PUSH1 0x0 DUP1 REVERT JUMPDEST POP PUSH2 0x236 PUSH2 0x4B2 JUMP JUMPDEST STOP JUMPDEST CALLVALUE DUP1 ISZERO PUSH2 0x244 JUMPI PUSH1 0x0 DUP1 REVERT JUMPDEST POP PUSH2 0x1A6 PUSH1 0x0 SLOAD DUP2 JUMP JUMPDEST CALLVALUE DUP1 ISZERO PUSH2 0x25A JUMPI PUSH1 0x0 DUP1 REVERT JUMPDEST POP PUSH2 0x236 PUSH2 0x559 JUMP JUMPDEST CALLVALUE DUP1 ISZERO PUSH2 0x26F JUMPI PUSH1 0x0 DUP1 REVERT JUMPDEST POP PUSH2 0x278 PUSH2 0x76D JUMP JUMPDEST PUSH1 0x40 MLOAD PUSH2 0x1B0 SWAP2 SWAP1 PUSH2 0xD79 JUMP JUMPDEST CALLVALUE DUP1 ISZERO PUSH2 0x291 JUMPI PUSH1 0x0 DUP1 REVERT JUMPDEST POP PUSH2 0x2A5 PUSH2 0x2A0 CALLDATASIZE PUSH1 0x4 PUSH2 0xDC6 JUMP JUMPDEST PUSH2 0x7CF JUMP JUMPDEST PUSH1 0x40 MLOAD PUSH1 0x1 PUSH1 0x1 PUSH1 0xA0 SHL SUB SWAP1 SWAP2 AND DUP2 MSTORE PUSH1 0x20 ADD PUSH2 0x1B0 JUMP JUMPDEST CALLVALUE DUP1 ISZERO PUSH2 0x2C9 JUMPI PUSH1 0x0 DUP1 REVERT JUMPDEST POP PUSH1 0x1 SLOAD PUSH2 0x2A5 SWAP1 PUSH1 0x1 PUSH1 0x1 PUSH1 0xA0 SHL SUB AND DUP2 JUMP JUMPDEST CALLVALUE DUP1 ISZERO PUSH2 0x2E9 JUMPI PUSH1 0x0 DUP1 REVERT JUMPDEST POP PUSH2 0x1A6 PUSH7 0x38D7EA4C68000 DUP2 JUMP JUMPDEST CALLVALUE DUP1 ISZERO PUSH2 0x304 JUMPI PUSH1 0x0 DUP1 REVERT JUMPDEST POP PUSH2 0x236 PUSH2 0x7F9 JUMP JUMPDEST PUSH2 0x236 PUSH2 0x898 JUMP JUMPDEST CALLVALUE DUP1 ISZERO PUSH2 0x321 JUMPI PUSH1 0x0 DUP1 REVERT JUMPDEST POP PUSH2 0x1A6 PUSH2 0x9D4 JUMP JUMPDEST CALLVALUE DUP1 ISZERO PUSH2 0x336 JUMPI PUSH1 0x0 DUP1 REVERT JUMPDEST POP CALLER PUSH1 0x0 SWAP1 DUP2 MSTORE PUSH1 0x5 PUSH1 0x20 MSTORE PUSH1 0x40 SWAP1 KECCAK256 SLOAD ISZERO ISZERO PUSH1 0x40 MLOAD SWAP1 ISZERO ISZERO DUP2 MSTORE PUSH1 0x20 ADD PUSH2 0x1B0 JUMP JUMPDEST CALLVALUE DUP1 ISZERO PUSH2 0x365 JUMPI PUSH1 0x0 DUP1 REVERT JUMPDEST POP PUSH2 0x1A6 PUSH1 0x64 DUP2 JUMP JUMPDEST CALLVALUE DUP1 ISZERO PUSH2 0x37A JUMPI PUSH1 0x0 DUP1 REVERT JUMPDEST POP PUSH2 0x236 PUSH2 0x9EA JUMP JUMPDEST CALLVALUE DUP1 ISZERO PUSH2 0x38F JUMPI PUSH1 0x0 DUP1 REVERT JUMPDEST POP PUSH2 0x1A6 PUSH1 0x2 SLOAD DUP2 JUMP JUMPDEST CALLVALUE DUP1 ISZERO PUSH2 0x3A5 JUMPI PUSH1 0x0 DUP1 REVERT JUMPDEST POP PUSH2 0x1A6 PUSH2 0xB0E JUMP JUMPDEST CALLVALUE DUP1 ISZERO PUSH2 0x3BA JUMPI PUSH1 0x0 DUP1 REVERT JUMPDEST POP PUSH2 0x1A6 PUSH2 0x3C9 CALLDATASIZE PUSH1 0x4 PUSH2 0xDDF JUMP JUMPDEST PUSH1 0x1 PUSH1 0x1 PUSH1 0xA0 SHL SUB AND PUSH1 0x0 SWAP1 DUP2 MSTORE PUSH1 0x5 PUSH1 0x20 MSTORE PUSH1 0x40 SWAP1 KECCAK256 SLOAD SWAP1 JUMP JUMPDEST CALLVALUE DUP1 ISZERO PUSH2 0x3F0 JUMPI PUSH1 0x0 DUP1 REVERT JUMPDEST POP PUSH2 0x1A6 PUSH2 0x3FF CALLDATASIZE PUSH1 0x4 PUSH2 0xDDF JUMP JUMPDEST PUSH1 0x5 PUSH1 0x20 MSTORE PUSH1 0x0 SWAP1 DUP2 MSTORE PUSH1 0x40 SWAP1 KECCAK256 SLOAD DUP2 JUMP JUMPDEST CALLVALUE DUP1 ISZERO PUSH2 0x41D JUMPI PUSH1 0x0 DUP1 REVERT JUMPDEST POP PUSH2 0x236 PUSH2 0xB26 JUMP JUMPDEST CALLVALUE DUP1 ISZERO PUSH2 0x432 JUMPI PUSH1 0x0 DUP1 REVERT JUMPDEST POP PUSH1 0x3 SLOAD PUSH2 0x2A5 SWAP1 PUSH1 0x1 PUSH1 0x1 PUSH1 0xA0 SHL SUB AND DUP2 JUMP JUMPDEST PUSH1 0x0 DUP1 DUP1 JUMPDEST PUSH1 0x6 SLOAD DUP2 LT ISZERO PUSH2 0x4AC JUMPI CALLER PUSH1 0x1 PUSH1 0x1 PUSH1 0xA0 SHL SUB AND PUSH1 0x6 DUP3 DUP2 SLOAD DUP2 LT PUSH2 0x472 JUMPI PUSH2 0x472 PUSH2 0xE0F JUMP JUMPDEST PUSH1 0x0 SWAP2 DUP3 MSTORE PUSH1 0x20 SWAP1 SWAP2 KECCAK256 ADD SLOAD PUSH1 0x1 PUSH1 0x1 PUSH1 0xA0 SHL SUB AND SUB PUSH2 0x49A JUMPI DUP2 PUSH2 0x496 DUP2 PUSH2 0xE3B JUMP JUMPDEST SWAP3 POP POP JUMPDEST DUP1 PUSH2 0x4A4 DUP2 PUSH2 0xE3B JUMP JUMPDEST SWAP2 POP POP PUSH2 0x44B JUMP JUMPDEST POP SWAP2 SWAP1 POP JUMP JUMPDEST PUSH1 0x1 SLOAD PUSH1 0x1 PUSH1 0x1 PUSH1 0xA0 SHL SUB AND CALLER EQ PUSH2 0x51C JUMPI PUSH1 0x40 MLOAD PUSH3 0x461BCD PUSH1 0xE5 SHL DUP2 MSTORE PUSH1 0x20 PUSH1 0x4 DUP3 ADD MSTORE PUSH1 0x22 PUSH1 0x24 DUP3 ADD MSTORE PUSH32 0x43616C6C6572206973206E6F7420746865206C6F7474657279206F7065726174 PUSH1 0x44 DUP3 ADD MSTORE PUSH2 0x37B9 PUSH1 0xF1 SHL PUSH1 0x64 DUP3 ADD MSTORE PUSH1 0x84 ADD JUMPDEST PUSH1 0x40 MLOAD DUP1 SWAP2 SUB SWAP1 REVERT JUMPDEST PUSH1 0x2 DUP1 SLOAD PUSH1 0x0 SWAP2 DUP3 SWAP1 SSTORE PUSH1 0x40 MLOAD CALLER SWAP3 DUP4 SWAP2 DUP4 ISZERO PUSH2 0x8FC MUL SWAP2 DUP5 SWAP2 SWAP1 DUP2 DUP2 DUP2 DUP6 DUP9 DUP9 CALL SWAP4 POP POP POP POP ISZERO DUP1 ISZERO PUSH2 0x554 JUMPI RETURNDATASIZE PUSH1 0x0 DUP1 RETURNDATACOPY RETURNDATASIZE PUSH1 0x0 REVERT JUMPDEST POP POP POP JUMP JUMPDEST PUSH1 0x1 SLOAD PUSH1 0x1 PUSH1 0x1 PUSH1 0xA0 SHL SUB AND CALLER EQ PUSH2 0x5BE JUMPI PUSH1 0x40 MLOAD PUSH3 0x461BCD PUSH1 0xE5 SHL DUP2 MSTORE PUSH1 0x20 PUSH1 0x4 DUP3 ADD MSTORE PUSH1 0x22 PUSH1 0x24 DUP3 ADD MSTORE PUSH32 0x43616C6C6572206973206E6F7420746865206C6F7474657279206F7065726174 PUSH1 0x44 DUP3 ADD MSTORE PUSH2 0x37B9 PUSH1 0xF1 SHL PUSH1 0x64 DUP3 ADD MSTORE PUSH1 0x84 ADD PUSH2 0x513 JUMP JUMPDEST PUSH1 0x6 SLOAD PUSH2 0x60D JUMPI PUSH1 0x40 MLOAD PUSH3 0x461BCD PUSH1 0xE5 SHL DUP2 MSTORE PUSH1 0x20 PUSH1 0x4 DUP3 ADD MSTORE PUSH1 0x19 PUSH1 0x24 DUP3 ADD MSTORE PUSH32 0x4E6F207469636B65747320776572652070757263686173656400000000000000 PUSH1 0x44 DUP3 ADD MSTORE PUSH1 0x64 ADD PUSH2 0x513 JUMP JUMPDEST PUSH1 0x6 SLOAD PUSH1 0x0 SWAP1 PUSH2 0x61D SWAP1 NUMBER PUSH2 0xE54 JUMP JUMPDEST PUSH1 0x40 DUP1 MLOAD TIMESTAMP PUSH1 0x20 DUP3 ADD MSTORE SWAP2 BLOCKHASH SWAP1 DUP3 ADD DUP2 SWAP1 MSTORE SWAP2 POP PUSH1 0x0 SWAP1 PUSH1 0x60 ADD PUSH1 0x40 DUP1 MLOAD PUSH1 0x1F NOT DUP2 DUP5 SUB ADD DUP2 MSTORE SWAP2 SWAP1 MSTORE DUP1 MLOAD PUSH1 0x20 SWAP1 SWAP2 ADD KECCAK256 PUSH1 0x6 SLOAD SWAP1 SWAP2 POP PUSH1 0x0 SWAP1 PUSH2 0x662 SWAP1 DUP4 PUSH2 0xE83 JUMP JUMPDEST SWAP1 POP PUSH1 0x0 PUSH1 0x6 DUP3 DUP2 SLOAD DUP2 LT PUSH2 0x679 JUMPI PUSH2 0x679 PUSH2 0xE0F JUMP JUMPDEST PUSH1 0x0 SWAP2 DUP3 MSTORE PUSH1 0x20 SWAP1 SWAP2 KECCAK256 ADD SLOAD PUSH1 0x3 DUP1 SLOAD PUSH20 0xFFFFFFFFFFFFFFFFFFFFFFFFFFFFFFFFFFFFFFFF NOT AND PUSH1 0x1 PUSH1 0x1 PUSH1 0xA0 SHL SUB SWAP1 SWAP3 AND SWAP2 DUP3 OR SWAP1 SSTORE SWAP1 POP PUSH2 0x6CA PUSH7 0x38D7EA4C68000 PUSH7 0x2386F26FC10000 PUSH2 0xE54 JUMP JUMPDEST PUSH1 0x6 SLOAD PUSH2 0x6D7 SWAP2 SWAP1 PUSH2 0xE97 JUMP JUMPDEST PUSH1 0x1 PUSH1 0x1 PUSH1 0xA0 SHL SUB DUP3 AND PUSH1 0x0 SWAP1 DUP2 MSTORE PUSH1 0x5 PUSH1 0x20 MSTORE PUSH1 0x40 DUP2 KECCAK256 DUP1 SLOAD SWAP1 SWAP2 SWAP1 PUSH2 0x6FF SWAP1 DUP5 SWAP1 PUSH2 0xEAE JUMP JUMPDEST SWAP1 SWAP2 SSTORE POP POP PUSH1 0x1 PUSH1 0x1 PUSH1 0xA0 SHL SUB DUP2 AND PUSH1 0x0 SWAP1 DUP2 MSTORE PUSH1 0x5 PUSH1 0x20 MSTORE PUSH1 0x40 SWAP1 KECCAK256 SLOAD PUSH1 0x4 SSTORE PUSH1 0x6 SLOAD PUSH2 0x735 SWAP1 PUSH7 0x38D7EA4C68000 SWAP1 PUSH2 0xE97 JUMP JUMPDEST PUSH1 0x2 PUSH1 0x0 DUP3 DUP3 SLOAD PUSH2 0x746 SWAP2 SWAP1 PUSH2 0xEAE JUMP JUMPDEST SWAP1 SWAP2 SSTORE POP PUSH2 0x758 SWAP1 POP PUSH1 0x6 PUSH1 0x0 PUSH2 0xD3F JUMP JUMPDEST PUSH2 0x764 PUSH2 0x708 TIMESTAMP PUSH2 0xEAE JUMP JUMPDEST PUSH1 0x0 SSTORE POP POP POP POP JUMP JUMPDEST PUSH1 0x60 PUSH1 0x6 DUP1 SLOAD DUP1 PUSH1 0x20 MUL PUSH1 0x20 ADD PUSH1 0x40 MLOAD SWAP1 DUP2 ADD PUSH1 0x40 MSTORE DUP1 SWAP3 SWAP2 SWAP1 DUP2 DUP2 MSTORE PUSH1 0x20 ADD DUP3 DUP1 SLOAD DUP1 ISZERO PUSH2 0x7C5 JUMPI PUSH1 0x20 MUL DUP3 ADD SWAP2 SWAP1 PUSH1 0x0 MSTORE PUSH1 0x20 PUSH1 0x0 KECCAK256 SWAP1 JUMPDEST DUP2 SLOAD PUSH1 0x1 PUSH1 0x1 PUSH1 0xA0 SHL SUB AND DUP2 MSTORE PUSH1 0x1 SWAP1 SWAP2 ADD SWAP1 PUSH1 0x20 ADD DUP1 DUP4 GT PUSH2 0x7A7 JUMPI JUMPDEST POP POP POP POP POP SWAP1 POP SWAP1 JUMP JUMPDEST PUSH1 0x6 DUP2 DUP2 SLOAD DUP2 LT PUSH2 0x7DF JUMPI PUSH1 0x0 DUP1 REVERT JUMPDEST PUSH1 0x0 SWAP2 DUP3 MSTORE PUSH1 0x20 SWAP1 SWAP2 KECCAK256 ADD SLOAD PUSH1 0x1 PUSH1 0x1 PUSH1 0xA0 SHL SUB AND SWAP1 POP DUP2 JUMP JUMPDEST CALLER PUSH1 0x0 SWAP1 DUP2 MSTORE PUSH1 0x5 PUSH1 0x20 MSTORE PUSH1 0x40 SWAP1 KECCAK256 SLOAD PUSH2 0x855 JUMPI PUSH1 0x40 MLOAD PUSH3 0x461BCD PUSH1 0xE5 SHL DUP2 MSTORE PUSH1 0x20 PUSH1 0x4 DUP3 ADD MSTORE PUSH1 0x16 PUSH1 0x24 DUP3 ADD MSTORE PUSH32 0x43616C6C6572206973206E6F7420612077696E6E657200000000000000000000 PUSH1 0x44 DUP3 ADD MSTORE PUSH1 0x64 ADD PUSH2 0x513 JUMP JUMPDEST CALLER PUSH1 0x0 DUP2 DUP2 MSTORE PUSH1 0x5 PUSH1 0x20 MSTORE PUSH1 0x40 DUP1 DUP3 KECCAK256 DUP1 SLOAD SWAP1 DUP4 SWAP1 SSTORE SWAP1 MLOAD SWAP1 SWAP2 DUP4 SWAP2 DUP4 ISZERO PUSH2 0x8FC MUL SWAP2 DUP5 SWAP2 SWAP1 DUP2 DUP2 DUP2 DUP6 DUP9 DUP9 CALL SWAP4 POP POP POP POP ISZERO DUP1 ISZERO PUSH2 0x554 JUMPI RETURNDATASIZE PUSH1 0x0 DUP1 RETURNDATACOPY RETURNDATASIZE PUSH1 0x0 REVERT JUMPDEST PUSH2 0x8A9 PUSH7 0x2386F26FC10000 CALLVALUE PUSH2 0xE83 JUMP JUMPDEST ISZERO PUSH2 0x8BA PUSH7 0x2386F26FC10000 PUSH2 0xC1E JUMP JUMPDEST PUSH1 0x40 MLOAD PUSH1 0x20 ADD PUSH2 0x8CA SWAP2 SWAP1 PUSH2 0xEE5 JUMP JUMPDEST PUSH1 0x40 MLOAD PUSH1 0x20 DUP2 DUP4 SUB SUB DUP2 MSTORE SWAP1 PUSH1 0x40 MSTORE SWAP1 PUSH2 0x8F7 JUMPI PUSH1 0x40 MLOAD PUSH3 0x461BCD PUSH1 0xE5 SHL DUP2 MSTORE PUSH1 0x4 ADD PUSH2 0x513 SWAP2 SWAP1 PUSH2 0xF51 JUMP JUMPDEST POP PUSH1 0x0 PUSH2 0x90B PUSH7 0x2386F26FC10000 CALLVALUE PUSH2 0xF84 JUMP JUMPDEST SWAP1 POP PUSH2 0x915 PUSH2 0x9D4 JUMP JUMPDEST DUP2 GT ISZERO PUSH2 0x964 JUMPI PUSH1 0x40 MLOAD PUSH3 0x461BCD PUSH1 0xE5 SHL DUP2 MSTORE PUSH1 0x20 PUSH1 0x4 DUP3 ADD MSTORE PUSH1 0x1D PUSH1 0x24 DUP3 ADD MSTORE PUSH32 0x4E6F7420656E6F756768207469636B65747320617661696C61626C652E000000 PUSH1 0x44 DUP3 ADD MSTORE PUSH1 0x64 ADD PUSH2 0x513 JUMP JUMPDEST PUSH1 0x0 JUMPDEST DUP2 DUP2 LT ISZERO PUSH2 0x9D0 JUMPI PUSH1 0x6 DUP1 SLOAD PUSH1 0x1 DUP2 ADD DUP3 SSTORE PUSH1 0x0 SWAP2 SWAP1 SWAP2 MSTORE PUSH32 0xF652222313E28459528D920B65115C16C04F3EFC82AAEDC97BE59F3F377C0D3F ADD DUP1 SLOAD PUSH20 0xFFFFFFFFFFFFFFFFFFFFFFFFFFFFFFFFFFFFFFFF NOT AND CALLER OR SWAP1 SSTORE DUP1 PUSH2 0x9C8 DUP2 PUSH2 0xE3B JUMP JUMPDEST SWAP2 POP POP PUSH2 0x967 JUMP JUMPDEST POP POP JUMP JUMPDEST PUSH1 0x6 SLOAD PUSH1 0x0 SWAP1 PUSH2 0x9E5 SWAP1 PUSH1 0x64 PUSH2 0xE54 JUMP JUMPDEST SWAP1 POP SWAP1 JUMP JUMPDEST PUSH1 0x0 SLOAD TIMESTAMP LT ISZERO PUSH2 0xA3C JUMPI PUSH1 0x40 MLOAD PUSH3 0x461BCD PUSH1 0xE5 SHL DUP2 MSTORE PUSH1 0x20 PUSH1 0x4 DUP3 ADD MSTORE PUSH1 0x1B PUSH1 0x24 DUP3 ADD MSTORE PUSH32 0x746865206C6F7474657279206E6F742065787069726564207965740000000000 PUSH1 0x44 DUP3 ADD MSTORE PUSH1 0x64 ADD PUSH2 0x513 JUMP JUMPDEST PUSH1 0x0 JUMPDEST PUSH1 0x6 SLOAD DUP2 LT ISZERO PUSH2 0xAFF JUMPI PUSH1 0x0 PUSH1 0x6 DUP3 DUP2 SLOAD DUP2 LT PUSH2 0xA5E JUMPI PUSH2 0xA5E PUSH2 0xE0F JUMP JUMPDEST PUSH1 0x0 SWAP2 DUP3 MSTORE PUSH1 0x20 DUP3 KECCAK256 ADD SLOAD PUSH1 0x6 DUP1 SLOAD PUSH1 0x1 PUSH1 0x1 PUSH1 0xA0 SHL SUB SWAP1 SWAP3 AND SWAP4 POP SWAP1 DUP5 SWAP1 DUP2 LT PUSH2 0xA8B JUMPI PUSH2 0xA8B PUSH2 0xE0F JUMP JUMPDEST PUSH1 0x0 SWAP2 DUP3 MSTORE PUSH1 0x20 DUP3 KECCAK256 ADD DUP1 SLOAD PUSH20 0xFFFFFFFFFFFFFFFFFFFFFFFFFFFFFFFFFFFFFFFF NOT AND PUSH1 0x1 PUSH1 0x1 PUSH1 0xA0 SHL SUB SWAP4 DUP5 AND OR SWAP1 SSTORE PUSH1 0x40 MLOAD SWAP2 DUP4 AND SWAP2 PUSH7 0x2386F26FC10000 SWAP1 DUP3 DUP2 DUP2 DUP2 DUP6 DUP9 DUP4 CALL SWAP4 POP POP POP POP ISZERO DUP1 ISZERO PUSH2 0xAEA JUMPI RETURNDATASIZE PUSH1 0x0 DUP1 RETURNDATACOPY RETURNDATASIZE PUSH1 0x0 REVERT JUMPDEST POP POP DUP1 DUP1 PUSH2 0xAF7 SWAP1 PUSH2 0xE3B JUMP JUMPDEST SWAP2 POP POP PUSH2 0xA3F JUMP JUMPDEST POP PUSH2 0xB0C PUSH1 0x6 PUSH1 0x0 PUSH2 0xD3F JUMP JUMPDEST JUMP JUMPDEST PUSH1 0x6 SLOAD PUSH1 0x0 SWAP1 PUSH2 0x9E5 SWAP1 PUSH7 0x2386F26FC10000 SWAP1 PUSH2 0xE97 JUMP JUMPDEST PUSH1 0x1 SLOAD PUSH1 0x1 PUSH1 0x1 PUSH1 0xA0 SHL SUB AND CALLER EQ PUSH2 0xB8B JUMPI PUSH1 0x40 MLOAD PUSH3 0x461BCD PUSH1 0xE5 SHL DUP2 MSTORE PUSH1 0x20 PUSH1 0x4 DUP3 ADD MSTORE PUSH1 0x22 PUSH1 0x24 DUP3 ADD MSTORE PUSH32 0x43616C6C6572206973206E6F7420746865206C6F7474657279206F7065726174 PUSH1 0x44 DUP3 ADD MSTORE PUSH2 0x37B9 PUSH1 0xF1 SHL PUSH1 0x64 DUP3 ADD MSTORE PUSH1 0x84 ADD PUSH2 0x513 JUMP JUMPDEST PUSH1 0x6 SLOAD ISZERO PUSH2 0xC01 JUMPI PUSH1 0x40 MLOAD PUSH3 0x461BCD PUSH1 0xE5 SHL DUP2 MSTORE PUSH1 0x20 PUSH1 0x4 DUP3 ADD MSTORE PUSH1 0x26 PUSH1 0x24 DUP3 ADD MSTORE PUSH32 0x43616E6E6F742052657374617274204472617720617320447261772069732069 PUSH1 0x44 DUP3 ADD MSTORE PUSH32 0x6E20706C61790000000000000000000000000000000000000000000000000000 PUSH1 0x64 DUP3 ADD MSTORE PUSH1 0x84 ADD PUSH2 0x513 JUMP JUMPDEST PUSH2 0xC0D PUSH1 0x6 PUSH1 0x0 PUSH2 0xD3F JUMP JUMPDEST PUSH2 0xC19 PUSH2 0x708 TIMESTAMP PUSH2 0xEAE JUMP JUMPDEST PUSH1 0x0 SSTORE JUMP JUMPDEST PUSH1 0x60 DUP2 PUSH1 0x0 SUB PUSH2 0xC45 JUMPI POP POP PUSH1 0x40 DUP1 MLOAD DUP1 DUP3 ADD SWAP1 SWAP2 MSTORE PUSH1 0x1 DUP2 MSTORE PUSH1 0x3 PUSH1 0xFC SHL PUSH1 0x20 DUP3 ADD MSTORE SWAP1 JUMP JUMPDEST DUP2 PUSH1 0x0 JUMPDEST DUP2 ISZERO PUSH2 0xC6F JUMPI DUP1 PUSH2 0xC59 DUP2 PUSH2 0xE3B JUMP JUMPDEST SWAP2 POP PUSH2 0xC68 SWAP1 POP PUSH1 0xA DUP4 PUSH2 0xF84 JUMP JUMPDEST SWAP2 POP PUSH2 0xC49 JUMP JUMPDEST PUSH1 0x0 DUP2 PUSH8 0xFFFFFFFFFFFFFFFF DUP2 GT ISZERO PUSH2 0xC8A JUMPI PUSH2 0xC8A PUSH2 0xF98 JUMP JUMPDEST PUSH1 0x40 MLOAD SWAP1 DUP1 DUP3 MSTORE DUP1 PUSH1 0x1F ADD PUSH1 0x1F NOT AND PUSH1 0x20 ADD DUP3 ADD PUSH1 0x40 MSTORE DUP1 ISZERO PUSH2 0xCB4 JUMPI PUSH1 0x20 DUP3 ADD DUP2 DUP1 CALLDATASIZE DUP4 CALLDATACOPY ADD SWAP1 POP JUMPDEST POP SWAP1 POP JUMPDEST DUP5 ISZERO PUSH2 0xD37 JUMPI PUSH2 0xCC9 PUSH1 0x1 DUP4 PUSH2 0xE54 JUMP JUMPDEST SWAP2 POP PUSH2 0xCD6 PUSH1 0xA DUP7 PUSH2 0xE83 JUMP JUMPDEST PUSH2 0xCE1 SWAP1 PUSH1 0x30 PUSH2 0xEAE JUMP JUMPDEST PUSH1 0xF8 SHL DUP2 DUP4 DUP2 MLOAD DUP2 LT PUSH2 0xCF6 JUMPI PUSH2 0xCF6 PUSH2 0xE0F JUMP JUMPDEST PUSH1 0x20 ADD ADD SWAP1 PUSH31 0xFFFFFFFFFFFFFFFFFFFFFFFFFFFFFFFFFFFFFFFFFFFFFFFFFFFFFFFFFFFFFF NOT AND SWAP1 DUP2 PUSH1 0x0 BYTE SWAP1 MSTORE8 POP PUSH2 0xD30 PUSH1 0xA DUP7 PUSH2 0xF84 JUMP JUMPDEST SWAP5 POP PUSH2 0xCB8 JUMP JUMPDEST SWAP5 SWAP4 POP POP POP POP JUMP JUMPDEST POP DUP1 SLOAD PUSH1 0x0 DUP3 SSTORE SWAP1 PUSH1 0x0 MSTORE PUSH1 0x20 PUSH1 0x0 KECCAK256 SWAP1 DUP2 ADD SWAP1 PUSH2 0xD5D SWAP2 SWAP1 PUSH2 0xD60 JUMP JUMPDEST POP JUMP JUMPDEST JUMPDEST DUP1 DUP3 GT ISZERO PUSH2 0xD75 JUMPI PUSH1 0x0 DUP2 SSTORE PUSH1 0x1 ADD PUSH2 0xD61 JUMP JUMPDEST POP SWAP1 JUMP JUMPDEST PUSH1 0x20 DUP1 DUP3 MSTORE DUP3 MLOAD DUP3 DUP3 ADD DUP2 SWAP1 MSTORE PUSH1 0x0 SWAP2 SWAP1 DUP5 DUP3 ADD SWAP1 PUSH1 0x40 DUP6 ADD SWAP1 DUP5 JUMPDEST DUP2 DUP2 LT ISZERO PUSH2 0xDBA JUMPI DUP4 MLOAD PUSH1 0x1 PUSH1 0x1 PUSH1 0xA0 SHL SUB AND DUP4 MSTORE SWAP3 DUP5 ADD SWAP3 SWAP2 DUP5 ADD SWAP2 PUSH1 0x1 ADD PUSH2 0xD95 JUMP JUMPDEST POP SWAP1 SWAP7 SWAP6 POP POP POP POP POP POP JUMP JUMPDEST PUSH1 0x0 PUSH1 0x20 DUP3 DUP5 SUB SLT ISZERO PUSH2 0xDD8 JUMPI PUSH1 0x0 DUP1 REVERT JUMPDEST POP CALLDATALOAD SWAP2 SWAP1 POP JUMP JUMPDEST PUSH1 0x0 PUSH1 0x20 DUP3 DUP5 SUB SLT ISZERO PUSH2 0xDF1 JUMPI PUSH1 0x0 DUP1 REVERT JUMPDEST DUP2 CALLDATALOAD PUSH1 0x1 PUSH1 0x1 PUSH1 0xA0 SHL SUB DUP2 AND DUP2 EQ PUSH2 0xE08 JUMPI PUSH1 0x0 DUP1 REVERT JUMPDEST SWAP4 SWAP3 POP POP POP JUMP JUMPDEST PUSH4 0x4E487B71 PUSH1 0xE0 SHL PUSH1 0x0 MSTORE PUSH1 0x32 PUSH1 0x4 MSTORE PUSH1 0x24 PUSH1 0x0 REVERT JUMPDEST PUSH4 0x4E487B71 PUSH1 0xE0 SHL PUSH1 0x0 MSTORE PUSH1 0x11 PUSH1 0x4 MSTORE PUSH1 0x24 PUSH1 0x0 REVERT JUMPDEST PUSH1 0x0 PUSH1 0x1 DUP3 ADD PUSH2 0xE4D JUMPI PUSH2 0xE4D PUSH2 0xE25 JUMP JUMPDEST POP PUSH1 0x1 ADD SWAP1 JUMP JUMPDEST DUP2 DUP2 SUB DUP2 DUP2 GT ISZERO PUSH2 0xE67 JUMPI PUSH2 0xE67 PUSH2 0xE25 JUMP JUMPDEST SWAP3 SWAP2 POP POP JUMP JUMPDEST PUSH4 0x4E487B71 PUSH1 0xE0 SHL PUSH1 0x0 MSTORE PUSH1 0x12 PUSH1 0x4 MSTORE PUSH1 0x24 PUSH1 0x0 REVERT JUMPDEST PUSH1 0x0 DUP3 PUSH2 0xE92 JUMPI PUSH2 0xE92 PUSH2 0xE6D JUMP JUMPDEST POP MOD SWAP1 JUMP JUMPDEST DUP1 DUP3 MUL DUP2 ISZERO DUP3 DUP3 DIV DUP5 EQ OR PUSH2 0xE67 JUMPI PUSH2 0xE67 PUSH2 0xE25 JUMP JUMPDEST DUP1 DUP3 ADD DUP1 DUP3 GT ISZERO PUSH2 0xE67 JUMPI PUSH2 0xE67 PUSH2 0xE25 JUMP JUMPDEST PUSH1 0x0 JUMPDEST DUP4 DUP2 LT ISZERO PUSH2 0xEDC JUMPI DUP2 DUP2 ADD MLOAD DUP4 DUP3 ADD MSTORE PUSH1 0x20 ADD PUSH2 0xEC4 JUMP JUMPDEST POP POP PUSH1 0x0 SWAP2 ADD MSTORE JUMP JUMPDEST PUSH32 0x7468652076616C7565206D757374206265206D756C7469706C65206F66200000 DUP2 MSTORE PUSH1 0x0 DUP3 MLOAD PUSH2 0xF1D DUP2 PUSH1 0x1E DUP6 ADD PUSH1 0x20 DUP8 ADD PUSH2 0xEC1 JUMP JUMPDEST PUSH32 0x2045746865720000000000000000000000000000000000000000000000000000 PUSH1 0x1E SWAP4 SWAP1 SWAP2 ADD SWAP3 DUP4 ADD MSTORE POP PUSH1 0x24 ADD SWAP2 SWAP1 POP JUMP JUMPDEST PUSH1 0x20 DUP2 MSTORE PUSH1 0x0 DUP3 MLOAD DUP1 PUSH1 0x20 DUP5 ADD MSTORE PUSH2 0xF70 DUP2 PUSH1 0x40 DUP6 ADD PUSH1 0x20 DUP8 ADD PUSH2 0xEC1 JUMP JUMPDEST PUSH1 0x1F ADD PUSH1 0x1F NOT AND SWAP2 SWAP1 SWAP2 ADD PUSH1 0x40 ADD SWAP3 SWAP2 POP POP JUMP JUMPDEST PUSH1 0x0 DUP3 PUSH2 0xF93 JUMPI PUSH2 0xF93 PUSH2 0xE6D JUMP JUMPDEST POP DIV SWAP1 JUMP JUMPDEST PUSH4 0x4E487B71 PUSH1 0xE0 SHL PUSH1 0x0 MSTORE PUSH1 0x41 PUSH1 0x4 MSTORE PUSH1 0x24 PUSH1 0x0 REVERT INVALID LOG2 PUSH5 0x6970667358 0x22 SLT KECCAK256 0xE1 MSTORE8 PUSH3 0x941C46 0xC6 0x2B PUSH18 0x2ADB1BDA33A6B32617691A07EB2354B045B5 MSIZE EXTCODEHASH 0xEE 0xA5 LT PUSH5 0x736F6C6343 STOP ADDMOD GT STOP CALLER "
    },
    "gasEstimates": {
      "creation": {
        "codeDepositCost": "813600",
        "executionCost": "52281",
        "totalCost": "865881"
      },
      "external": {
        "BuyTickets()": "infinite",
        "CurrentWinningReward()": "2468",
        "DrawWinnerTicket()": "infinite",
        "IsWinner()": "2405",
        "RefundAll()": "infinite",
        "RemainingTickets()": "2472",
        "WithdrawCommission()": "infinite",
        "WithdrawWinnings()": "infinite",
        "checkWinningsAmount()": "2418",
        "duration()": "275",
        "expiration()": "2330",
        "getSenderTickets()": "infinite",
        "getTickets()": "infinite",
        "getWinningsForAddress(address)": "2580",
        "lastWinner()": "2425",
        "lastWinnerAmount()": "2331",
        "lotteryOperator()": "2404",
        "maxTickets()": "251",
        "operatorTotalCommission()": "2329",
        "restartDraw()": "infinite",
        "ticketCommission()": "273",
        "ticketPrice()": "252",
        "tickets(uint256)": "4659",
        "winnings(address)": "2517"
      }
    },
    "methodIdentifiers": {
      "BuyTickets()": "91d8b14e",
      "CurrentWinningReward()": "c6944fa0",
      "DrawWinnerTicket()": "4788af7c",
      "IsWinner()": "96c85ef3",
      "RefundAll()": "a88f4672",
      "RemainingTickets()": "93a563b5",
      "WithdrawCommission()": "35580df2",
      "WithdrawWinnings()": "71827b7b",
      "checkWinningsAmount()": "0789c607",
      "duration()": "0fb5a6b4",
      "expiration()": "4665096d",
      "getSenderTickets()": "1057886b",
      "getTickets()": "4ed02622",
      "getWinningsForAddress(address)": "dd64e534",
      "lastWinner()": "fe188184",
      "lastWinnerAmount()": "06f7f3bf",
      "lotteryOperator()": "5a58acdd",
      "maxTickets()": "9b894703",
      "operatorTotalCommission()": "ba946d79",
      "restartDraw()": "f2613269",
      "ticketCommission()": "6032a4f9",
      "ticketPrice()": "1209b1f6",
      "tickets(uint256)": "50b44712",
      "winnings(address)": "ea3a1499"
    }
  },
  "storageLayout": {
    "storage": [
      {
        "astId": 16,
        "contract": "Lottery.sol:Lottery",
        "label": "expiration",
        "offset": 0,
        "slot": "0",
        "type": "t_uint256"
      },
      {
        "astId": 18,
        "contract": "Lottery.sol:Lottery",
        "label": "lotteryOperator",
        "offset": 0,
        "slot": "1",
        "type": "t_address"
      },
      {
        "astId": 21,
        "contract": "Lottery.sol:Lottery",
        "label": "operatorTotalCommission",
        "offset": 0,
        "slot": "2",
        "type": "t_uint256"
      },
      {
        "astId": 23,
        "contract": "Lottery.sol:Lottery",
        "label": "lastWinner",
        "offset": 0,
        "slot": "3",
        "type": "t_address"
      },
      {
        "astId": 25,
        "contract": "Lottery.sol:Lottery",
        "label": "lastWinnerAmount",
        "offset": 0,
        "slot": "4",
        "type": "t_uint256"
      },
      {
        "astId": 29,
        "contract": "Lottery.sol:Lottery",
        "label": "winnings",
        "offset": 0,
        "slot": "5",
        "type": "t_mapping(t_address,t_uint256)"
      },
      {
        "astId": 32,
        "contract": "Lottery.sol:Lottery",
        "label": "tickets",
        "offset": 0,
        "slot": "6",
        "type": "t_array(t_address)dyn_storage"
      }
    ],
    "types": {
      "t_address": {
        "encoding": "inplace",
        "label": "address",
        "numberOfBytes": "20"
      },
      "t_array(t_address)dyn_storage": {
        "base": "t_address",
        "encoding": "dynamic_array",
        "label": "address[]",
        "numberOfBytes": "32"
      },
      "t_mapping(t_address,t_uint256)": {
        "encoding": "mapping",
        "key": "t_address",
        "label": "mapping(address => uint256)",
        "numberOfBytes": "32",
        "value": "t_uint256"
      },
      "t_uint256": {
        "encoding": "inplace",
        "label": "uint256",
        "numberOfBytes": "32"
      }
    }
  },
  "userdoc": {
    "kind": "user",
    "methods": {},
    "version": 1
  }
}